S01900002E2E2F536C6F7750726F6772657373696F6E2E73313910
S32D0000C00000000020FD5C01005960010059600100596001005960010059600100000000000000000000000000F6
S32D0000C028000000005960010059600100000000005960010059600100596001005960010059600100596001001A
S32D0000C050596001005960010059600100596001005960010059600100596001005960010059600100596001007E
S32D0000C0785960010059600100596001005960010059600100596001005960010059600100596001005960010056
S32D0000C0A0596001005960010059600100596001005960010059600100596001005960010059600100596001002E
S32D0000C0C85960010059600100596001005960010059600100596001005960010059600100596001005960010006
S32D0000C0F05960010059A50100596001005960010059600100596001005960010059600100596001005960010099
S32D0000C11859600100596001005960010059600100596001005960010059600100596001005960010059600100B5
S32D0000C1405960010059600100596001005960010065700100596001005960010059600100596001005960010071
S32D0000C1685960010059600100596001005960010059600100596001005960010059600100596001005960010065
S32D0000C190596001005960010059600100596001005960010059600100A9600100596001005960010059600100ED
S32D0000C1B85960010059600100596001005960010059600100596001005960010059600100596001005960010015
S32D0000C41081F0004102E000BF83F0004330B54FEA41044FEA430594EA050F08BF90EA020F1FBF54EA000C55EAC6
S32D0000C438020C7FEA645C7FEA655C00F0E2804FEA5454D4EB5555B8BF6D420CDD2C4480EA020281EA030382EA0F
S32D0000C460000083EA010180EA020281EA0303362D88BF30BD11F0004F4FEA01314FF4801C4CEA113102D0404263
S32D0000C48861EB410113F0004F4FEA03334CEA133302D0524263EB430394EA050F00F0A780A4F10104D5F1200E8A
S32D0000C4B00DDB02FA0EFC22FA05F2801841F1000103FA0EF2801843FA05F359410EE0A5F120050EF1200E012A2D
S32D0000C4D803FA0EFC28BF4CF0020C43FA05F3C01851EBE37101F0004507D54FF0000EDCF1000C7EEB00006EEB67
S32D0000C5000101B1F5801F1BD3B1F5001F0CD349085FEA30004FEA3C0C04F101044FEA445212F5800F80F09A8000
S32D0000C528BCF1004F08BF5FEA500C50F1000041EB045141EA050130BD5FEA4C0C404141EB010111F4801FA4F114
S32D0000C5500104E9D191F0000F04BF01460020B1FA81F308BF2033A3F10B03B3F120020CDA0C3208DD02F1140C87
S32D0000C578C2F10C0201FA0CF021FA02F10CE002F11402D8BFC2F1200C01FA02F120FA0CFCDCBF41EA0C019040B1
S32D0000C5A0E41AA2BF01EB0451294330BD6FEA04041F3C1CDA0C340EDC04F11404C4F1200220FA04F001FA02F3B6
S32D0000C5C840EA030021FA04F345EA030130BDC4F10C04C4F1200220FA02F001FA04F340EA0300294630BD21FAA8
S32D0000C5F004F0294630BD94F0000F83F4801306BF81F480110134013D4EE77FEA645C18BF7FEA655C29D094EA1C
S32D0000C618050F08BF90EA020F05D054EA000C04BF1946104630BD91EA030F1EBF0021002030BD5FEA545C05D1A3
S32D0000C6404000494128BF41F0004130BD14F580043CBF01F5801130BD01F0004545F0FE4141F470014FF0000031
S32D0000C66830BD7FEA645C1ABF194610467FEA655C1CBF0B46024650EA013406BF52EA033591EA030F41F40021D7
S32D0000C69030BD00BF90F0000F04BF0021704730B54FF4806404F132044FF000054FF0000150E700BF90F0000F66
S32D0000C6B804BF0021704730B54FF4806404F1320410F0004548BF40424FF000013EE700BF42004FEAE2014FEAF9
S32D0000C6E031014FEA02701FBF12F07F4393F07F4F81F06051704792F0000F14BF93F07F4F704730B54FF460741B
S32D0000C70801F0004521F0004120E700BF50EA010208BF704730B54FF000050AE050EA010208BF704730B511F046
S32D0000C730004502D5404261EB41014FF4806404F132045FEA915C3FF4DCAE4FF003025FEADC0C18BF03325FEAA0
S32D0000C758DC0C18BF033202EBDC02C2F1200300FA03FC20FA02F001FA03FE40EA0E0021FA02F11444C1E600BF19
S32D0000C78070B54FF0FF0C4CF4E06C1CEA11541DBF1CEA135594EA0C0F95EA0C0F00F0DEF82C4481EA030621EAF3
S32D0000C7A84C5123EA4C5350EA013518BF52EA033541F4801143F4801338D0A0FB02CE4FF00005E1FB02E506F05F
S32D0000C7D00042E0FB03E54FF00006E1FB03569CF0000F18BF4EF0010EA4F1FF04B6F5007F64F5407404D25FEA0F
S32D0000C7F84E0E6D4146EB060642EAC62141EA55514FEAC52040EA5E504FEACE2EB4F1FD0C88BFBCF5E06F1ED8D2
S32D0000C820BEF1004F08BF5FEA500E50F1000041EB045170BD06F0004646EA010140EA020081EA0301B4EB5C0487
S32D0000C848C2BFD4EB0C0541EA045170BD41F480114FF0000E013C00F3AB8014F1360FDEBF002001F0004170BDF0
S32D0000C870C4F10004203C35DA0C341BDC04F11404C4F1200500FA05F320FA04F001FA05F240EA020001F0004207
S32D0000C89821F0004110EBD37021FA04F642EB06015EEA430E08BF20EAD37070BDC4F10C04C4F1200500FA04F32F
S32D0000C8C020FA05F001FA04F240EA020001F0004110EBD37041F100015EEA430E08BF20EAD37070BDC4F12005C7
S32D0000C8E800FA05F24EEA020E20FA04F301FA05F243EA020321FA04F001F0004121FA04F220EA020000EBD37028
S32D0000C9105EEA430E08BF20EAD37070BD94F0000F0FD101F00046400041EB010111F4801F08BF013CF7D041EA6D
S32D0000C938060195F0000F18BF704703F00046520043EB030313F4801F08BF013DF7D043EA0603704794EA0C0FF1
S32D0000C9600CEA135518BF95EA0C0F0CD050EA410618BF52EA4306D1D181EA030101F000414FF0000070BD50EA38
S32D0000C988410606BF1046194652EA430619D094EA0C0F02D150EA013613D195EA0C0F05D152EA03361CBF10467B
S32D0000C9B019460AD181EA030101F0004141F0FE4141F470014FF0000070BD41F0FE4141F4780170BD70B54FF04D
S32D0000C9D8FF0C4CF4E06C1CEA11541DBF1CEA135594EA0C0F95EA0C0F00F0A7F8A4EB050481EA030E52EA03359B
S32D0000CA004FEA013100F088804FEA03334FF0805545EA131343EA12634FEA022245EA111545EA10654FEA002676
S32D0000CA280EF000419D4208BF964244F1FD0404F5407402D25B084FEA3202B61A65EB03055B084FEA32024FF461
S32D0000CA5080104FF4002CB6EB020E75EB030E22BFB61A754640EA0C005B084FEA3202B6EB020E75EB030E22BF22
S32D0000CA78B61A754640EA5C005B084FEA3202B6EB020E75EB030E22BFB61A754640EA9C005B084FEA3202B6EBEA
S32D0000CAA0020E75EB030E22BFB61A754640EADC0055EA060E18D04FEA051545EA16754FEA06164FEAC30343EAAC
S32D0000CAC852734FEAC2025FEA1C1CC0D111F4801F0BD141EA00014FF000004FF0004CB6E711F4801F04BF0143AE
S32D0000CAF00020B4F1FD0C88BFBCF5E06F3FF6AFAEB5EB030C04BFB6EB020C5FEA500C50F1000041EB045170BDBC
S32D0000CB180EF0004E4EEA113114EB5C04C2BFD4EB0C0541EA045170BD41F480114FF0000E013C90E645EA060EC3
S32D0000CB408DE60CEA135594EA0C0F08BF95EA0C0F3FF43BAF94EA0C0F0AD150EA01347FF434AF95EA0C0F7FF499
S32D0000CB6825AF104619462CE795EA0C0F06D152EA03353FF4FDAE1046194622E750EA410618BF52EA43067FF432
S32D0000CB90C5AE50EA41047FF40DAF52EA43057FF4EBAE12E74FF0FF3C06E000BF4FF0010C02E000BF4FF0010C75
S32D0000CBB84DF804CD4FEA410C7FEA6C5C4FEA430C18BF7FEA6C5C1BD001B050EA410C0CBF52EA430C91EA030FEC
S32D0000CBE002BF90EA020F0020704710F1000F91EA030F58BF994208BF90422CBFD8176FEAE37040F0010070476E
S32D0000CC084FEA410C7FEA6C5C02D150EA013C07D14FEA430C7FEA6C5CD6D152EA033CD3D05DF8040B704700BFCD
S32D0000CC308446104662468C461946634600E000BF01B5FFF7B7FF002848BF10F1000F01BD4DF808EDFFF7F4FF13
S32D0000CC580CBF012000205DF808FB00BF4DF808EDFFF7EAFF34BF012000205DF808FB00BF4DF808EDFFF7E0FF18
S32D0000CC8094BF012000205DF808FB00BF4DF808EDFFF7CEFF94BF012000205DF808FB00BF4DF808EDFFF7C4FF40
S32D0000CCA834BF012000205DF808FB00BF4FEA410212F5001215D211D56FF47873B3EB625212D94FEAC12343F0D6
S32D0000CCD0004343EA505311F0004F23FA02F018BF404270474FF00000704750EA013005D111F0004008BF6FF016
S32D0000CCF8004070474FF00000704700BF4A0011D212F5001211D20DD56FF47873B3EB62520ED44FEAC12343F085
S32D0000CD20004343EA505323FA02F070474FF00000704750EA013002D14FF0FF3070474FF0000070474FEA410241
S32D0000CD48B2F1E04324BFB3F5001CDCF1FE5C0DD901F0004C4FEAC0024CEA5070B2F1004F40EB830008BF20F09E
S32D0000CD700100704711F0804F21D113F13872BCBF01F00040704741F480114FEA5252C2F11802C2F1200C10FAB1
S32D0000CD980CF320FA02F018BF40F001004FEAC1234FEAD32303FA0CFC40EA0C0023FA02F34FEA4303CCE77FEA26
S32D0000CDC0625307D150EA01331EBF4FF0FE4040F44000704701F0004040F0FE4040F40000704700BF80F00040CC
S32D0000CDE802E000BF81F0004142001FBF5FEA410392EA030F7FEA226C7FEA236C6AD04FEA1262D2EB1363C1BF06
S32D0000CE10D218414048404140B8BF5B42192B88BF704710F0004F40F4000020F07F4018BF404211F0004F41F4FA
S32D0000CE38000121F07F4118BF494292EA030F3FD0A2F1010241FA03FC10EB0C00C3F1200301FA03F100F000432B
S32D0000CE6002D5494260EB4000B0F5000F13D3B0F1807F06D340084FEA310102F10102FE2A51D2B1F1004F40EB94
S32D0000CE88C25008BF20F0010040EA03007047490040EB000010F4000FA2F10102EDD1B0FA80FCACF1080CB2EB5F
S32D0000CEB00C0200FA0CF0AABF00EBC25052421843BCBFD0401843704792F0000F81F4000106BF80F400000132EB
S32D0000CED8013BB5E74FEA41037FEA226C18BF7FEA236C21D092EA030F04D092F0000F08BF0846704790EA010FD7
S32D0000CF001CBF0020704712F07F4F04D1400028BF40F00040704712F100723CBF00F50000704700F0004343F0DC
S32D0000CF28FE4040F4000070477FEA226216BF08467FEA23630146420206BF5FEA412390EA010F40F480007047C1
S32D0000CF504FF0000304E000BF10F0004348BF40425FEA000C08BF704743F0964301464FF000001CE050EA010264
S32D0000CF7808BF70474FF000030AE000BF50EA010208BF704711F0004302D5404261EB41015FEA010C02BF84465B
S32D0000CFA00146002043F0B64308BFA3F18053A3F50003BCFA8CF2083AA3EBC25310DB01FA02FC634400FA02FC6B
S32D0000CFC8C2F12002BCF1004F20FA02F243EB020008BF20F00100704702F1200201FA02FCC2F1200250EA4C0034
S32D0000CFF021FA02F243EB020008BF20EADC7070474FF0FF0C1CEAD0521EBF1CEAD15392EA0C0F93EA0C0F6FD019
S32D0000D0181A4480EA010C400218BF5FEA41211ED04FF0006343EA501043EA5111A0FB01310CF00040B1F5000FE7
S32D0000D0403EBF490041EAD3715B0040EA010062F17F02FD2A1DD8B3F1004F40EBC25008BF20F00100704790F058
S32D0000D068000F0CF0004C08BF49024CEA502040EA51207F3AC2BFD2F1FF0340EAC250704740F400004FF0000388
S32D0000D090013A5DDC12F1190FDCBF00F000407047C2F10002410021FA02F1C2F1200200FA02FC5FEA310040F1D5
S32D0000D0B8000053EA4C0308BF20EADC70704792F0000F00F0004C02BF400010F4000F013AF9D040EA0C0093F04C
S32D0000D0E0000F01F0004C02BF490011F4000F013BF9D041EA0C018FE70CEAD15392EA0C0F18BF93EA0C0F0AD00B
S32D0000D10830F0004C18BF31F0004CD8D180EA010000F00040704790F0000F17BF90F0004F084691F0000F91F0BB
S32D0000D130004F14D092EA0C0F01D142020FD193EA0C0F03D14B0218BF084608D180EA010000F0004040F0FE4051
S32D0000D15840F40000704740F0FE4040F4400070474FF0FF0C1CEAD0521EBF1CEAD15392EA0C0F93EA0C0F69D044
S32D0000D180A2EB030280EA010C49024FEA402037D04FF0805343EA111143EA10130CF000408B4238BF5B0042F14E
S32D0000D1A87D024FF4000C8B4224BF5B1A40EA0C00B3EB510F24BFA3EB510340EA5C00B3EB910F24BFA3EB9103A4
S32D0000D1D040EA9C00B3EBD10F24BFA3EBD10340EADC001B0118BF5FEA1C1CE0D1FD2A3FF650AF8B4240EBC25018
S32D0000D1F808BF20F0010070470CF0004C4CEA50207F32C2BFD2F1FF0340EAC250704740F400004FF00003013AF1
S32D0000D22037E792F0000F00F0004C02BF400010F4000F013AF9D040EA0C0093F0000F01F0004C02BF490011F4C9
S32D0000D248000F013BF9D041EA0C0195E70CEAD15392EA0C0F08D142027FF47DAF93EA0C0F7FF470AF084676E7AE
S32D0000D27093EA0C0F04D14B023FF44CAF08466EE730F0004C18BF31F0004CCAD130F000427FF45CAF31F0004376
S32D0000D2987FF43CAF5FE700BF4FF0FF3C06E000BF4FF0010C02E000BF4FF0010C4DF804CD4FEA40024FEA41039F
S32D0000D2C07FEA226C18BF7FEA236C11D001B052EA530C18BF90EA010F58BFB2EB030088BFC81738BF6FEAE1706E
S32D0000D2E818BF40F0010070477FEA226C02D15FEA402C05D17FEA236CE4D15FEA412CE1D05DF8040B704700BF16
S32D0000D310844608466146FFE70FB5FFF7C9FF002848BF10F1000F0FBD4DF808EDFFF7F4FF0CBF012000205DF839
S32D0000D33808FB00BF4DF808EDFFF7EAFF34BF012000205DF808FB00BF4DF808EDFFF7E0FF94BF012000205DF8A9
S32D0000D36008FB00BF4DF808EDFFF7D2FF94BF012000205DF808FB00BF4DF808EDFFF7C8FF34BF012000205DF8B1
S32D0000D38808FB00BF4FEA4002B2F1FE4F0FD34FF09E03B3EB12620DD94FEA002343F0004310F0004F23FA02F060
S32D0000D3B018BF404270474FF00000704712F1610F01D1420205D110F0004008BF6FF0004070474FF00000704797
S32D0000D3D8036803B11B181846704700BF03685A004CBF43F0004323F00043C018704700BF2DE9F84F0446914699
S32D0000D40041B301F1FF3BDA46002707EB0A0101EBD1756D1004EBC5063046FFF7E3FF8046681CAB4504EBC000FA
S32D0000D4280DD0FFF7DBFF0138C84504D9BD4209D005F1FF3AE5E7484505D26F1CE1E74FF0FF30F1E7002630469A
S32D0000D450BDE8F88F0E463046BDE8F88F30B52B4B83B004468D1E002B49D0284601A9AFF300800346002822D028
S32D0000D4782A4618460199FFF7BBFF054600281DD0FFF7ACFF6B68A064012B10D0281D002B22DBFFF7A3FF002164
S32D0000D4A0E06421650368002B0FDBFFF79BFF2061002003B030BD002323610520F9E720610920F6E72061092066
S32D0000D4C8F3E7C3F3036058B101280CD002280ED0002020610920E8E70122E0642265DDE7094B2361E1E7094AEF
S32D0000D4F000202261DDE7084900202161D9E7074B0749C81AC2100192B6E700BF0000000029DA000025DA0000AD
S32D0000D51821DA000030EA010028EC0100036810B50446D80706D4990704F1480009D500F00DFD23685A0709D508
S32D0000D54018070ED5D90613D510BD00F0FBFC23685A07F5D404F1D00000F004FD23681807F0D404F5D87000F036
S32D0000D56805FD2368D906EBD404F50C70BDE8104000F040BD2DE9F0470F1D054691460FCFADF5916D02AC261D09
S32D0000D5900FC60FCF0FC60FCF0FC697E80F00D5F80C80D5F818A0002786E80F00216C27602846FFF753FF06460C
S32D0000D5B8B94514BF4FF00A094FF00909FEB1A16B49F01009616401208DE8100449462A462B46C04700282BD1BA
S32D0000D5E0002E2AD1204692A94FF410720DF06AFF082F28D1216C2846FFF730FF06464FF00909002EDFD1206CD1
S32D0000D60821464FF41072686192A80DF057FF2F69294692AA4846B847A09B0746636401208DE8100449462A46AA
S32D0000D6302B46C0470028D3D00926304622B00DF5806DBDE8F087072FF6D1201D00F06EFC38B504460D46296C54
S32D0000D6582046FFF7FFFE50B92A6C23696261012021462A4698470828F1D0072801D010F07FF8281D00F056FC97
S32D0000D68011B933B10220704704298CBF0220012070470F2A01D90220704700EB820118464A68009B1A6070474D
S32D0000D6A810B50A4684B000210B4603AC0094FFF7E3FF039804B010BD11B933B10220704704298CBF0220012020
S32D0000D6D070470F2A01D902207047009900EB8202096818465160704710B584B004AB0C4643F8042D0021009330
S32D0000D6F822460B46FFF7E0FF04B010BD2DE9F04FCD6C8BB00C4655F8041B174600F008021E46039200F0030823
S32D0000D7200795002B40F0CF8009020691216D8DF821300323B8F1020F8DF8203008BFA56B11F0010340F0D3807B
S32D0000D748019304F158030293D5F80090B9F1000F00F0CB80022E00F0AE80B5F80090B5F802A00435A26C0F2198
S32D0000D7702AF0010B38469344FFF796FF834518D829F0010CE3440AF0010A09F00103584543EA4A092CBF002056
S32D0000D7980120B9F1010F12D032D2B8F1000F02D0002840F01D810435CEE70AF0010A09F0010343EA4A09002092
S32D0000D7C0B9F1010FECD1B8F1000F40F0B680C8B16B68D5F800909A1C19D0029A013309920DD0281DFFF7F8FDE6
S32D0000D7E84FEAD972014609AB20460FF02BF8002800F0F280099A002A40F0BA800835A3E7B9F1020F03D00920CD
S32D0000D8100BB0BDE8F08F2B6823F000420092B8F1000F71D1002843D00398002840F0A1800098002800F0A08078
S32D0000D838009BDDF80C90DB0705F1040A40F1B480CDF810800596A846029E12E000998D4200F0D9800996FFF7B5
S32D0000D860BBFD5A46014609AB20460EF0EFFFA946B0B90AF1040A05F1010950460996FFF7ABFD09AB01460022A4
S32D0000D88820460EF0DFFF0AF1040A834609F101055046BBF1000FD9D04546059EDDF81080009A4A4564D02B68E1
S32D0000D8B0002B7BDB0099481C05EB800548E7D5F804A0083552E70B04C1F30740216D06930222B8F1020F05EB42
S32D0000D8D8800508BFA56B8DF8210011F001038DF820203FF42DAF00200190384606A900F019FC002887D1019A49
S32D0000D900002A43D1082083E70D213846D4F82090FFF7CAFE8145CAD1A26A9542C7D10098291D00220423A0623E
S32D0000D928E26223636163286800286EDB01220192BCE70D213846D4F82090FFF7B1FE81457FF45CAFA16A8D42FE
S32D0000D9507FF458AF2846FFF745FD0F2102463846FFF7C2FE384600212246FFF7BDFE07204EE7009900299BD19B
S32D0000D97838460D21FFF794FE099B20626362A562062041E70F213846FFF78AFE0E2102463846FFF7A5FE3846D5
S32D0000D9A00F211E4AFFF7A0FE072031E7043581E7029950460991FFF70FFD039A014609AB20460EF043FF00281A
S32D0000D9C87FF46EAFCDF8108005960AF1040A4FF00109A846029E4CE7CDF824800835B3E62846FFF7FBFC0435CB
S32D0000D9F00646A56320460EF09FFF00283FF407AF38460F213246FFF76FFE072000E74546B2E7009B591C05EBE7
S32D0000DA1881009CE7A1CA010002236FE601236DE600236BE62DE9F0470446E8B004290CD8DFE801F038039193B4
S32D0000DA400F00150C012B96B200F07881052B00F0C780022068B0BDE8F087002BF9D1102AF7D82368D90600F115
S32D0000DA68738164A8019200F0CFFA019AA36BD00744BF53F8040B6490910744BF53F8041B6591500744BF53F8D3
S32D0000DA90041B6691110748BF53F8042B64A8A36348BF679200F0AAFA0020D3E7002BD0D1A36BD00791B244BF42
S32D0000DAB853F8042B62608A0744BF53F8042BA260480744BF53F8042BE2600A0744BF53F8042B2261C80644BF04
S32D0000DAE053F8042B62618A0644BF53F8042BA261480644BF53F8042BE2610A0644BF53F8042B2262C80544BFDC
S32D0000DB0853F8042B62628A0544BF53F8042BA262480544BF53F8042BE2620A0544BF53F8042B2263C80444BFB3
S32D0000DB3053F8042B626311F400501CBF53F8042BA2634A0444BF53F8042BE2630A0444BF53F8042B2264002890
S32D0000DB5840D1A3637AE7012078E7032B7FF475AF160C95B2AA19102A3FF66FAF2368180700F10B8144A800F026
S32D0000DB801BFAA76B4FEA450E3B460DB344A90EF1FF3C01EBC60653F8040B62460CF0010146F8040B92B129B13A
S32D0000DBA853F8041B013A46F8041B0BD01846314650F8045B41F8045B5D68031D75600E1D023AF3D107EB8E03F6
S32D0000DBD044A8A36300F0CEF900203BE7002039E777192022BA42FFF434AF012B00F0A9800F2D40F2A9803746FF
S32D0000DBF8F6B1052B7FF429AF0F2D11D82268D0070ED522F00101052B2160204600F0DA8022F0030240F8482B3D
S32D0000DC20019300F093F9019B1FB12268510700F1B880012B00F0BF800F2D75D9002F40F0A080D4F83890002E29
S32D0000DC48C8462EDD49460DF1080A4FEA46080AEBC50251F8046B08F1FF3000F0010A42F8046BA8F1020CD0B107
S32D0000DC70BAF1000F08D051F8040B0CF1FF3CBCF1FF3F42F8040B0ED00E46104656F804AB40F804AB4968ACF176
S32D0000DC98020C5160311D021DBCF1FF3FF0D109EB8808A7B3102D2CBF2E4610260DF5D079414609EBC60CACF59D
S32D0000DCC0C8724FEA470951F8046B09F1FF3000F0010A42F8046BA9F1020CD0B1BAF1000F08D051F8040B0CF1DE
S32D0000DCE8FF3CBCF1FF3F42F8040B0ED00E46104656F804AB40F804AB4968ACF1020C5160311D021DBCF1FF3FCE
S32D0000DD10F0D108EB8908012B2BD00F2DC4F8388008D9FFB9384695E602A8019300F016F9019B83E702A800F05A
S32D0000DD380DF9F2E77719102250E70F2D3FF685AE102F10D9103F54E723F01003236004F50C70019200F058F99D
S32D0000DD60019A82E624A800F0FDF8002072E6002746E708F1040302A8A36300F0E3F8002068E624A80193C5F116
S32D0000DD88100600F0EFF8019B57E723F0080704F5D870276000F00CF9ECE6204622F0040140F8D01B019300F0D1
S32D0000DDB0DDF8019B3DE702A8019300F0C7F8019B002F3FF43EAFC5F110063AE741F0020140F8481B019300F098
S32D0000DDD8C1F8019B24E700BF406C7047F0B50D460F1DC96B296404460FCFADF5117D01AE0FC60FCF0FC60FCF49
S32D0000DE000FC697E80F0086E80F004FF0FF33009310992046FFF722FB58B9266921466A46B04708280646F3D001
S32D0000DE286846FFF77BFB062E03D009200DF5117DF0BD20462946FFF707FC00BF10B4DC6BC16082611946002228
S32D0000DE501C6410BCFFF792BB38B54269C3680A6404460D4623B10122FFF788FB0FF084FC0369214602202A46F3
S32D0000DE789847072803D0082804D00FF079FC281D00F050F820462946FFF7DEFBC36823B1CA6B0A640022FFF748
S32D0000DEA06DBB9FE7704700BF08B5836801460BB10120984708BD00BFF0B5D46B171D146405460C460FCFADF554
S32D0000DEC8277D01AE0FC60FCF0FC60FCF0FC697E80F0086E80F004FF0FF330093109990A8FFF7B8FA034690AA83
S32D0000DEF068460C21BBB9FFF7F7FB21466846A847064690A908206A466EB9949B98470528064601D00928E5D106
S32D0000DF186846FFF703FB30460DF5277DF0BD0926F6E700BF00F1340191E838009C46A6464CF8045D90E8FF0FD5
S32D0000DF40E54600BD90EC210B704700BF80EC210B704700BF90EC200B704700BF80EC200B704700BFD0EC200B8E
S32D0000DF68704700BFC0EC200B704700BFF0EC0201F0EC0211F0EC0221F0EC0231F0EC0241F0EC0251F0EC02615F
S32D0000DF90F0EC0271F0EC0281F0EC0291F0EC02A1F0EC02B1F0EC02C1F0EC02D1F0EC02E1F0EC02F1704700BFE6
S32D0000DFB8E0EC0201E0EC0211E0EC0221E0EC0231E0EC0241E0EC0251E0EC0261E0EC0271E0EC0281E0EC029155
S32D0000DFE0E0EC02A1E0EC02B1E0EC02C1E0EC02D1E0EC02E1E0EC02F1704700BFB0FC0181B0FC0191B0FC01A159
S32D0000E008B0FC01B1704700BFA0FC0181A0FC0191A0FC01A1A0FC01B1704700BFEC4600B52DE900502DE9FF1F47
S32D0000E0304FF000032DE90C0001A9FFF7D3FEDDF840E012B0704700BFEC4600B52DE900502DE9FF1F4FF00003FD
S32D0000E0582DE90C0001A9FFF7FBFEDDF840E012B0704700BFEC4600B52DE900502DE9FF1F4FF000032DE90C00CD
S32D0000E08001A9FFF707FFDDF840E012B0704700BFEC4600B52DE900502DE9FF1F4FF000032DE90C0001ABFFF718
S32D0000E0A8CDFEDDF840E012B0704700BFEC4600B52DE900502DE9FF1F4FF000032DE90C0001AAFFF7F5FEDDF804
S32D0000E0D040E012B0704700BF027A03461AB9427A42B9B02070470068013A01021A72000E196070474168501E6D
S32D0000E0F8587251F8040B0322596001021A72000E1960704710B5002184B00C220DEB02040B460094FFF7B0FA62
S32D0000E120039804B010BD00BFF0E700BF2DE9F043064685B00D464FF000094FF47F672846FFF7CAFFB028044683
S32D0000E14800F0B08010F0800120D000F0F003802B74D0902B37D0A02B45D0B02B56D0C02B00F0858000F0F800DB
S32D0000E170D0280BD104F00702511C41F40022304601210523FFF752FC0028D8D0092005B0BDE8F0834FEA800267
S32D0000E19803A85FFA82F800900D220B463046FFF76BFA039B600608F104084CBFC8EB0303434403AC03930094CD
S32D0000E1C0002130460D220B46FFF77AFAB7E700F00F020D2ADAD00F2AD8D0002103AC009430460B4603ACFFF77F
S32D0000E1E84BFA0094E8E7C24302F0070C47FA0CF0210700F47F6248BF42F48042002130460B46FFF70FFC00280D
S32D0000E210BCD194E7B1285DD0B2286ED0B32800F0958000F0FC02B42A46D000F00702531C43F40022012130469F
S32D0000E2380B46FFF7F7FB0028A4D17CE72846FFF747FF210240EA0104B4F5004F9AD0230500211A0C30460B46EB
S32D0000E2602401FFF7E3FB002890D114F4004F18BF4FF0010963E7C62873D0C72800F0848000F0F802C02A00F075
S32D0000E2889280C82800F0A680C9287FF47BAF2846FFF71EFF00F00F0300F0F0015A1C42EA013268E7B9F1000F81
S32D0000E2B000F0838000206AE700F00301481C022140F480220B463046FFF7B0FB00287FF45DAF34E72846FFF7FD
S32D0000E2D8FFFE024600283FF455AF10F0F0017FF451AF30460B46FFF79DFB00287FF44AAF21E700210D220B467E
S32D0000E30003AC30460094FFF7BBF92846FFF7E4FE022402060DD5039B00F07F0000FA04FE03EB0E01284603912E
S32D0000E328FFF7D6FE07340306F1D4039B00F07F0103AA03F5017C01FA04F400920CEB0402039239E72846FFF729
S32D0000E350C3FE00F00F03591C00F0F00041EA003268E72846FFF7B8FE00F00F03591C00F0F00041EA00320321E9
S32D0000E37830460B46FFF756FB00287FF403AFDAE62846FFF7A5FE024600283FF4FBAE10F0F0037FF4F7AE304688
S32D0000E3A00421FFF743FB00287FF4F0AEC7E600F00F01481C40F42022DDE703AC49460E224B4630460094FFF773
S32D0000E3C85BF9304649460F224B460094FFF774F94846D8E62846FFF77BFE00F0F00200F00F001032431C43EA3D
S32D0000E3F00232C4E610B5C26C84B0032054688DF80C00D37924020832084601A9019402928DF80D30FFF78AFE7D
S32D0000E41804B010BD08B5FFF783FE806C08BD00BF08B5FFF77DFEC16CC87901EB800303F1080008BD08B50FF029
S32D0000E4409BF900BF08B50FF097F900BF0000000080B584B000AF43F24870C1F6FF704FF0000143F20922C0F2D3
S32D0000E468010203F065F843F28070C1F6FF704DF63811C0F201014FF0000203F079FE43F24870C1F6FF704FF0AB
S32D0000E490010143F2BD22C0F2010203F04DF843F28070C1F6FF704DF64C11C0F201014FF0010203F061FE43F2F3
S32D0000E4B84870C1F6FF704FF0020143F26D32C0F2010203F035F843F28070C1F6FF704DF65C11C0F201014FF07F
S32D0000E4E0020203F049FE43F24870C1F6FF704FF0030143F21D42C0F2010203F01DF843F28070C1F6FF704DF69B
S32D0000E5086C11C0F201014FF0030203F031FE43F24870C1F6FF704FF0040143F2D142C0F2010203F01DF843F2BD
S32D0000E5308C70C1F6FF704DF68011C0F201014FF0040203F019FE43F24870C1F6FF704FF0050143F2E962C0F23A
S32D0000E558010203F005F843F28C70C1F6FF704DF69011C0F201014FF0050203F001FE43F24870C1F6FF704FF029
S32D0000E580060143F6F102C0F2010202F0EDFF43F28C70C1F6FF704DF69C11C0F201014FF0060203F0E9FD43F257
S32D0000E5A84870C1F6FF704FF0070143F61932C0F2010202F0D5FF43F28C70C1F6FF704DF6AC11C0F201014FF0D7
S32D0000E5D0070203F0D1FD43F24870C1F6FF704FF00C0143F63152C0F2010202F0BDFF43F29870C1F6FF704DF62F
S32D0000E5F8BC11C0F201014FF00C0203F0B9FD43F24870C1F6FF704FF0090143F65952C0F2010202F0A5FF43F2BE
S32D0000E6209870C1F6FF704DF6D411C0F201014FF0090203F0A1FD43F24870C1F6FF704FF00A0143F61972C0F214
S32D0000E648010202F08DFF43F29870C1F6FF704DF6E811C0F201014FF00A0203F089FD43F24870C1F6FF704FF0BA
S32D0000E670100144F2D902C0F2010202F075FF43F29870C1F6FF704DF6FC11C0F201014FF0100203F071FD43F2F1
S32D0000E6984870C1F6FF704FF0110144F29922C0F2010202F05DFF43F29870C1F6FF704DF61421C0F201014FF063
S32D0000E6C0110203F059FD43F24870C1F6FF704FF0140144F25942C0F2010202F05DFF43F29870C1F6FF704DF6EF
S32D0000E6E82C21C0F201014FF0140203F041FD43F24870C1F6FF704FF0150144F2A952C0F2010202F02DFF43F2DC
S32D0000E7109870C1F6FF704DF64021C0F201014FF0150203F029FD43F24870C1F6FF704FF0160144F2BD72C0F266
S32D0000E738010202F015FF43F29870C1F6FF704DF65421C0F201014FF0160203F011FD43F24870C1F6FF704FF031
S32D0000E760170144F6D112C0F2010202F0FDFE43F29870C1F6FF704DF66C21C0F201014FF0170203F0F9FC43F258
S32D0000E7884870C1F6FF704FF0180144F60942C0F2010202F0E5FE43F29870C1F6FF704DF68021C0F201014FF0E4
S32D0000E7B0180203F0E1FC43F24870C1F6FF704FF0080144F64962C0F2010202F09DFE43F2A470C1F6FF704DF61D
S32D0000E7D89421C0F201014FF0080203F0C9FC43F24870C1F6FF704FF00D0144F6D962C0F2010202F0CDFE43F22D
S32D0000E800A470C1F6FF704DF6A821C0F201014FF00D0203F0B1FC43F24870C1F6FF704FF00E0144F6E172C0F262
S32D0000E828010202F09DFE43F2A470C1F6FF704DF6C021C0F201014FF00E0203F099FC43F24870C1F6FF704FF0C2
S32D0000E850130145F28112C0F2010202F085FE43F2A470C1F6FF704DF6D821C0F201014FF0130203F081FC43F23A
S32D0000E8784870C1F6FF704FF01A0145F2E912C0F2010202F085FE43F2A470C1F6FF704DF6F021C0F201014FF028
S32D0000E8A01A0203F069FC43F24870C1F6FF704FF01B0145F26122C0F2010202F055FE43F2A470C1F6FF704DF602
S32D0000E8C80031C0F201014FF01B0203F051FC43F24870C1F6FF704FF0320145F23132C0F2010202F03DFE43F26B
S32D0000E8F0B070C1F6FF704DF60831C0F201014FF0320203F039FC43F24870C1F6FF704FF0330145F2C532C0F283
S32D0000E918010202F025FE43F2B070C1F6FF704DF61C31C0F201014FF0330203F021FC43F24870C1F6FF704FF024
S32D0000E9403C0145F25942C0F2010202F025FE43F2BC70C1F6FF704DF63031C0F201014FF03C0203F009FC43F247
S32D0000E9684870C1F6FF704FF03D0145F2E142C0F2010202F00DFE43F2BC70C1F6FF704DF64031C0F201014FF0EC
S32D0000E9903D0203F0F1FB43F24870C1F6FF704FF03E0145F25952C0F2010202F0DDFD43F2BC70C1F6FF704DF67D
S32D0000E9B85031C0F201014FF03E0203F0D9FB43F24870C1F6FF704FF03F0145F27552C0F2010202F0C5FD43F288
S32D0000E9E0BC70C1F6FF704DF66031C0F201014FF03F0203F0C1FB43F24870C1F6FF704FF0400145F29152C0F2A1
S32D0000EA08010202F0ADFD43F2BC70C1F6FF704DF67431C0F201014FF0400203F0A9FB43F24870C1F6FF704FF0B4
S32D0000EA30500145F25962C0F2010202F095FD43F2BC70C1F6FF704DF68C31C0F201014FF0500203F091FB43F2BC
S32D0000EA584870C1F6FF704FF0510145F2B962C0F2010202F07DFD43F2BC70C1F6FF704DF69C31C0F201014FF024
S32D0000EA80510203F079FB43F24870C1F6FF7040F22D1141F27522C0F2010202F035FD43F24870C1F6FF704FF432
S32D0000EAA8977141F2B922C0F2010202F041FD43F24870C1F6FF7040F22F1141F2FD22C0F2010202F04DFD43F248
S32D0000EAD04870C1F6FF704FF4987141F24532C0F2010202F059FD4FF00003FB6029E043F23C73C1F6FF73196813
S32D0000EAF8FA6813464FEAC3039B1A4FEAC303CB1818464FF00001DFF8402402F075FE43F23C73C1F6FF731968D3
S32D0000EB20FA6813464FEAC3039B1A4FEAC303CB1818464FF0000102F0EDFEFB6803F10103FB60FB688F2BCCBF9D
S32D0000EB4800230123DBB2002BCDD14FF000037B6043F23C73C1F6FF731B6818464FF008014FF0820202F09EFD5F
S32D0000EB7043F23C73C1F6FF731B6803F1380318464FF004014FF000024FF0804303F5701302F0D2FD43F23C73B3
S32D0000EB98C1F6FF731B6803F1700318464FF00601DFA3D3E9002302F0C3FD43F23C73C1F6FF731B6803F1A80356
S32D0000EBC018464FF008014FF02D0202F06FFD43F23C73C1F6FF731B6803F1E00318464FF008014FF0820202F0F3
S32D0000EBE861FD43F23C73C1F6FF731B6803F58C7318464FF007014FF000024FF0804302F097FD43F23C73C1F611
S32D0000EC10FF731B6803F5A87318464FF005014FF000024FF0804303F5041302F085FD43F23C73C1F6FF731B68D5
S32D0000EC3803F5C47318464FF004014FF000024FF0804303F5281302F073FD43F23C73C1F6FF731B6803F5E0732A
S32D0000EC6018464FF00701B2A3D3E9002302F064FD43F23C73C1F6FF731B6803F5FC7318464FF008014FF05A0222
S32D0000EC8802F010FD43F23C73C1F6FF731B6803F50C7318464FF005014FF000024FF07E5303F5E00302F044FD56
S32D0000ECB043F23C73C1F6FF731B6803F5287318464FF007014FF000024FF0804302F034FD43F23C73C1F6FF73FB
S32D0000ECD81B6803F5367318464FF008014FF0780202F0E0FC43F23C73C1F6FF731B6803F5447318464FF00401DC
S32D0000ED004FF000024FF0804303F5101302F014FD43F23C73C1F6FF731B6803F5527318464FF007014FF0000251
S32D0000ED284FF0804303F5901302F002FD43F23C73C1F6FF731B6803F5607318464FF006017BA3D3E9002302F041
S32D0000ED50F3FC43F23C73C1F6FF731B6803F56E7318464FF0040176A3D3E9002302F0E4FC43F23C73C1F6FF73C4
S32D0000ED781B6803F57C7318464FF007014FF000024FF07E5303F5E00302F0D2FC43F23C73C1F6FF731B6803F5EA
S32D0000EDA0856318464FF008014FF0460202F07EFC43F23C73C1F6FF731B6803F58C6318464FF004014FF000026A
S32D0000EDC84FF0804303F5802302F0B2FC43F23C73C1F6FF731B6803F5936318464FF008014FF0780202F05EFCB7
S32D0000EDF043F23C73C1F6FF731B6803F59A6318464FF007014FF000024FF0804303F5802302F092FC43F23C7389
S32D0000EE18C1F6FF731B6803F5A86318464FF008014FF0460202F03EFC43F23C73C1F6FF731B6803F5AF631846CC
S32D0000EE404FF004014FF000024FF0804302F074FC43F23C73C1F6FF731B6803F5B66318464FF008014FF07802BB
S32D0000EE6802F020FC43F23C73C1F6FF731B6803F5BD6318464FF0070131A3D3E9002302F057FC43F23C73C1F68E
S32D0000EE90FF731B6803F5C46318464FF005014FF000024FF0804303F5002302F045FC43F23C73C1F6FF731B687C
S32D0000EEB803F5CB6318464FF007014FF000024FF0804303F5E01302F033FC43F23C73C1F6FF731B6803F53263F5
S32D0000EEE003F1080318464FF008014FF02D0202F0DDFB43F23C73C1F6FF731B6803F5366318464FF004014FF025
S32D0000EF0800024FF0804303F5301302F011FC43F23C73C1F6FF731B6803F5386316E000BF333333333333114042
S32D0000EF309A9999999999D93F3333333333330B40CDCCCCCCCCCC1040333333333333D33F0000000003F118031B
S32D0000EF5818464FF008014FF0820202F0A3FB43F23C73C1F6FF731B6803F53D6318464FF00701E1A3D3E9002362
S32D0000EF8002F0DAFB43F23C73C1F6FF731B6803F5406303F1080318464FF005014FF000024FF0804303F5402331
S32D0000EFA802F0C6FB43F23C73C1F6FF731B6803F5446318464FF004014FF000024FF0804303F5A01302F0B4FB28
S32D0000EFD043F23C73C1F6FF731B6803F5466303F1180318464FF00501C7A3D3E9002302F0A3FB43F23C73C1F6BC
S32D0000EFF8FF731B6803F54E6303F1080318464FF004014FF000024FF0804303F56C1302F08FFB43F23C73C1F6DB
S32D0000F020FF731B6803F5526318464FF006014FF000024FF0804303F5801302F07DFB43F23C73C1F6FF731B68B4
S32D0000F04803F5546303F1180318464FF004014FF000024FF0804303F5081302F069FB43F23C73C1F6FF731B68FE
S32D0000F07003F5596318464FF00601A5A3D3E9002302F05AFB43F23C73C1F6FF731B6803F55C6303F10803184608
S32D0000F0984FF008014FF0000202F004FB43F23C73C1F6FF731B6803F5606318464FF004014FF000024FF08043A0
S32D0000F0C003F5301302F038FB43F23C73C1F6FF731B6803F5626303F1180318464FF007014FF000024FF080437E
S32D0000F0E803F5441302F024FB43F23C73C1F6FF731B6803F5676318464FF008014FF0780202F0D0FA43F23C7349
S32D0000F110C1F6FF731B6803F56A6303F1080318464FF006017CA3D3E9002302F005FB43F23C73C1F6FF731B683D
S32D0000F13803F56E6318464FF007014FF000024FF0804303F5C01302F0F3FA43F23C73C1F6FF731B6803F57063F3
S32D0000F16003F1180318464FF004014FF000024FF0804303F5281302F0DFFA43F23C73C1F6FF731B6803F575632F
S32D0000F18818464FF005014FF000024FF0804303F5801302F0CDFA43F23C73C1F6FF731B6803F5786303F10803CD
S32D0000F1B018464FF007014FF000024FF0804303F5002302F0B9FA43F23C73C1F6FF731B6803F57C6318464FF085
S32D0000F1D804014FF000024FF0804303F5920302F0A7FA43F23C73C1F6FF731B6803F5935318464FF0050148A3A5
S32D0000F200D3E9002302F098FA43F23C73C1F6FF731B6803F5945303F1180318464FF004014FF000024FF080431A
S32D0000F22803F5401302F084FA43F23C73C1F6FF731B6803F5965303F1100318464FF007014FF000024FF080439D
S32D0000F25003F5A01302F070FA43F23C73C1F6FF731B6803F5985303F1080318464FF006012DA3D3E9002302F0D2
S32D0000F2785FFA43F23C73C1F6FF731B6803F59A5318464FF004014FF000024FF0804303F5E01302F04DFA43F25C
S32D0000F2A03C73C1F6FF731B6803F59A5303F1380318464FF007014FF000024FF0804303F5A01302F039FA43F2E4
S32D0000F2C83C73C1F6FF731B6803F59C5303F1300318464FF0060112A3D3E9002302F028FA43F23C73C1F6FF7356
S32D0000F2F01B6803F59E5303F12803184618E000BF3333333333331B40273108AC1CDA15409A9999999999054090
S32D0000F31833333333333315403333333333330F409A9999999999C93F4FF004014FF000024FF0804303F5E013AE
S32D0000F34002F0FAF943F23C73C1F6FF731B6803F5A15318464FF006014FF000024FF0804303F5C01302F0E8F9B9
S32D0000F36843F23C73C1F6FF731B6803F5A25303F1180318464FF007014FF000024FF0804303F5381302F0D4F901
S32D0000F39043F23C73C1F6FF731B6803F5A45303F1100318464FF006014FF000024FF0804303F5A01302F0C0F98C
S32D0000F3B843F23C73C1F6FF731B6803F5A65303F1080318464FF007014FF000024FF0804303F5581302F0ACF9C5
S32D0000F3E003F0F4FA03F05AFB03F0D4FB4FF00003BB6015E043F25C73C1F6FF731968BA6813464FEA83039B1827
S32D0000F4084FEA0313CB1818464FF0010102F00EFCBB6803F10103BB60BB680B2BCCBF00230123DBB2002BE1D13E
S32D0000F43000F002F8FCE700BFB0B59AB000AF43F25070C1F6FF7003F007F9024640F23443C1F6FF731A604DF6DF
S32D0000F458D833C0F2010307F1340493E8070084E8070040F23443C1F6FF731B68002B00F0D58440F23443C1F677
S32D0000F480FF731B68012B03D101F006FD00F0CABC40F23443C1F6FF731B68022B40F0F18143F25C70C1F6FF70B4
S32D0000F4A803F0D6F8024640F23843C1F6FF731A6003F0B6FB43F2C870C1F6FF7003F0C8F8024640F24843C1F637
S32D0000F4D0FF731A6040F23843C1F6FF731A6813464FEA43039B184FEA83031A4640F24843C1F6FF731B68D218CD
S32D0000F4F840F24843C1F6FF731A6003F025FC43F27470C1F6FF7003F0A3F8024640F24043C1F6FF731A6040F2D3
S32D0000F5204043C1F6FF731B68002B76D040F24043C1F6FF731B68012B0CD143F28070C1F6FF7003F089F80246AC
S32D0000F54840F24443C1F6FF731A6062E040F24043C1F6FF731B68022B0CD143F28C70C1F6FF7003F075F802468D
S32D0000F57040F24443C1F6FF731A604EE040F24043C1F6FF731B68032B0CD143F29870C1F6FF7003F061F8024680
S32D0000F59840F24443C1F6FF731A603AE040F24043C1F6FF731B68042B0CD143F2A470C1F6FF7003F04DF8024673
S32D0000F5C040F24443C1F6FF731A6026E040F24043C1F6FF731B68052B0CD143F2B070C1F6FF7003F039F8024666
S32D0000F5E840F24443C1F6FF731A6012E040F24043C1F6FF731B68062B0BD143F2BC70C1F6FF7003F025F802465A
S32D0000F61040F24443C1F6FF731A6043F61400C1F6FF704FF0000109F0A3F843F61400C1F6FF704FF0010109F07C
S32D0000F638F9F843F24873C1F6FF73196840F24443C1F6FF731B681A4613464FEA83039B184FEA8303CB18184689
S32D0000F66001F0DEFE034687F85B3097F85B30012B47D143F23C73C1F6FF73196840F24843C1F6FF731B681A46A7
S32D0000F68813464FEAC3039B1A4FEAC303CB18184601F0CAFF03467B654DF6E433C0F2010307F1280493E807006E
S32D0000F6B084E8070007F12803786D19464FF0030203F008FD03467B6543F23C73C1F6FF73196840F24843C1F6EB
S32D0000F6D8FF731B681A4613464FEAC3039B1A4FEAC303CA1840F24443C1F6FF731B68104619467A6D02F066F870
S32D0000F70090E397F85B30022B47D143F23C73C1F6FF73196840F24443C1F6FF731B681A4613464FEAC3039B1AA9
S32D0000F7284FEAC303CB18184601F08AFF03463B654DF6F033C0F2010307F11C0493E8070084E8070007F11C03D0
S32D0000F750386D19464FF0030203F042FC03463B6543F23C73C1F6FF73196840F24843C1F6FF731B681A46134679
S32D0000F7784FEAC3039B1A4FEAC303CA1840F24443C1F6FF731B68104619463A6D02F034F844E397F85B30032B80
S32D0000F7A04ED143F23C73C1F6FF73196840F24843C1F6FF731B681A4613464FEAC3039B1A4FEAC303CB18184678
S32D0000F7C801F04AFF02460B46C7E912234DF60043C0F201033C461D460FCD0FC495E8030084E803003B46D7E95B
S32D0000F7F012011A464FF0030303F0DEFA02460B46C7E9122343F23C73C1F6FF73196840F24843C1F6FF731B68F3
S32D0000F8181A4613464FEAC3039B1A4FEAC303CA1840F24443C1F6FF731B6810461946D7E9122301F0FBFFF1E2A7
S32D0000F84097F85B30042B40F0ED8243F23C73C1F6FF73196840F24843C1F6FF731B681A4613464FEAC3039B1A4E
S32D0000F8684FEAC303CA1840F24443C1F6FF731B681046194601F0F6FFD0E240F23443C1F6FF731B68032B31D15A
S32D0000F89043F25C70C1F6FF7002F0DEFE024640F23843C1F6FF731A6003F0BEF943F2C870C1F6FF7002F0D0FEC0
S32D0000F8B8024640F24843C1F6FF731A6040F23843C1F6FF731A6813464FEA43039B184FEA83031A4640F24843BB
S32D0000F8E0C1F6FF731B68D21840F24843C1F6FF731A6097E240F23443C1F6FF731B68042B40F0FD8043F614000D
S32D0000F908C1F6FF704DF6B031C0F2010109F0C0F807F134034FF0000019464FF0030203F0D5FB03467B644FF0E7
S32D0000F9308E037B66B0E043F23C73C1F6FF7319687A6E13464FEAC3039B1A4FEAC303CB18184601F09FFE03460D
S32D0000F95887F8433043F23C73C1F6FF7319687A6E13464FEAC3039B1A4FEAC303CB18184601F080FE0346032BE6
S32D0000F98014BF00230123DBB2002B36D043F23C73C1F6FF7319687B6E03F1010213464FEAC3039B1A4FEAC30307
S32D0000F9A8CD1843F23C73C1F6FF7319687A6E13464FEAC3039B1A4FEAC303CB18184601F027FE044643F23C7345
S32D0000F9D0C1F6FF7319687A6E13464FEAC3039B1A4FEAC303CB18184601F03AFE02460B462846214601F01EFF85
S32D0000F9F835E043F23C73C1F6FF7319687B6E03F1010213464FEAC3039B1A4FEAC303CD1843F23C73C1F6FF7360
S32D0000FA2019687A6E13464FEAC3039B1A4FEAC303CB18184601F0F0FD044643F23C73C1F6FF7319687A6E13460B
S32D0000FA484FEAC3039B1A4FEAC303CB18184601F0EBFD0346284621461A4601F0B3FE43F23C73C1F6FF73196815
S32D0000FA707B6E03F1010213464FEAC3039B1A4FEAC303CA1897F843301046194601F042FF7B6E03F1FF337B66C1
S32D0000FA987A6E7B6C9A42B4BF00230123DBB2002B7FF445AF43F23C73C1F6FF7319687A6C13464FEAC3039B1A3B
S32D0000FAC04FEAC303CB1818464FF000014FF000024FF0000301F0AEFE43F23C73C1F6FF7319687A6C13464FEA72
S32D0000FAE8C3039B1A4FEAC303CB1818464FF0000101F00CFF92E140F23443C1F6FF731B68052B48D143F25C70E7
S32D0000FB10C1F6FF7002F0A0FD024640F23843C1F6FF731A6003F080F843F2C870C1F6FF7002F092FD024640F281
S32D0000FB384843C1F6FF731A6040F23843C1F6FF731A6813464FEA43039B184FEA83031A4640F24843C1F6FF7389
S32D0000FB601B68D21840F24843C1F6FF731A6043F23C73C1F6FF73196840F24843C1F6FF731B681A4613464FEAC1
S32D0000FB88C3039B1A4FEAC303CB1818464FF0010101F0BCFE42E140F23443C1F6FF731B68062B48D143F25C70E5
S32D0000FBB0C1F6FF7002F050FD024640F23843C1F6FF731A6003F030F843F2C870C1F6FF7002F042FD024640F2D1
S32D0000FBD84843C1F6FF731A6040F23843C1F6FF731A6813464FEA43039B184FEA83031A4640F24843C1F6FF73E9
S32D0000FC001B68D21840F24843C1F6FF731A6043F23C73C1F6FF73196840F24843C1F6FF731B681A4613464FEA20
S32D0000FC28C3039B1A4FEAC303CB1818464FF0000101F06CFEF2E040F23443C1F6FF731B68072B6DD143F6140074
S32D0000FC50C1F6FF704FF0000108F08AFD43F61400C1F6FF704FF0010108F0E0FD43F61400C1F6FF704DF6CC3165
S32D0000FC78C0F2010108F00CFF43F25C70C1F6FF7002F0E6FC024640F23843C1F6FF731A604FF000033B6623E02E
S32D0000FCA043F23C73C1F6FF73196840F23843C1F6FF731A6813464FEA43039B184FEA83031A463B6ED3181A46B2
S32D0000FCC813464FEAC3039B1A4FEAC303CB1818464FF0010101F01AFE3B6E03F101033B663B6E0B2BCCBF0023A8
S32D0000FCF00123DBB2002BD3D143F25C73C1F6FF73196840F23843C1F6FF731B681A4613464FEA83039B184FEAFB
S32D0000FD180313CB1818464FF0010101F087FF7DE040F23443C1F6FF731B68082B6DD143F61400C1F6FF704FF0D9
S32D0000FD40000108F015FD43F61400C1F6FF704FF0010108F06BFD43F61400C1F6FF704DF6CC31C0F2010108F017
S32D0000FD6897FE43F25C70C1F6FF7002F071FC024640F23843C1F6FF731A604FF00003FB6523E043F23C73C1F67A
S32D0000FD90FF73196840F23843C1F6FF731A6813464FEA43039B184FEA83031A46FB6DD3181A4613464FEAC30345
S32D0000FDB89B1A4FEAC303CB1818464FF0000101F0A5FDFB6D03F10103FB65FB6D0B2BCCBF00230123DBB2002B6D
S32D0000FDE0D3D143F25C73C1F6FF73196840F23843C1F6FF731B681A4613464FEA83039B184FEA0313CB1818468F
S32D0000FE084FF0000101F012FF08E040F23443C1F6FF731B68092B01D100F006F807F16807BD46B0BD0000000082
S32D0000FE30B0B592B000AF43F61400C1F6FF704FF0000108F095FC43F61400C1F6FF704FF0010108F0EBFC43F646
S32D0000FE581400C1F6FF704DF61841C0F2010108F035FD43F2E860C1F6FF700AF0CDF9034643F61400C1F6FF70A9
S32D0000FE80194608F031FE43F26870C1F6FF704DF62441C0F2010102F04DF843F26870C1F6FF704DF63841C0F267
S32D0000FEA8010102F043F843F26870C1F6FF704DF64C41C0F2010102F039F843F26873C1F6FF731B6803F1A002D1
S32D0000FED040F22443C1F6FF731B781046194601F0A9FE43F26870C1F6FF704DF66041C0F2010102F01FF843F259
S32D0000FEF86873C1F6FF731B6803F1F00240F22543C1F6FF731B781046194601F08FFE43F26870C1F6FF704DF670
S32D0000FF207041C0F2010102F005F843F26873C1F6FF731B6803F5A07240F22643C1F6FF731B781046194601F09C
S32D0000FF4875FE43F26870C1F6FF704DF68041C0F2010101F0EBFF43F26873C1F6FF731B6803F5C87240F22743C8
S32D0000FF70C1F6FF731B781046194601F05BFE43F26870C1F6FF704DF68C41C0F2010101F0D1FF43F26870C1F62C
S32D0000FF98FF704DF6A441C0F2010101F0C7FF43F26870C1F6FF704DF6B841C0F2010101F0BDFF43F26870C1F6A5
S32D0000FFC0FF704DF6CC41C0F2010101F0B3FF43F26870C1F6FF7002F03FFB024640F23C43C1F6FF731A6043F6C9
S32D0000FFE81400C1F6FF704FF0000108F0BDFB43F61400C1F6FF704FF0010108F013FC40F23C43C1F6FF731B68A9
S32D00010010002B6AD143F61400C1F6FF704FF0000108F0A6FB43F61400C1F6FF704FF0010108F0FCFB43F614001F
S32D00010038C1F6FF704DF6E441C0F2010108F028FD40F20043C1F6FF731B687B644DF6E433C0F2010307F12C0402
S32D0001006093E8070084E8070007F12C03786C19464FF0030203F02EF803467B6440F20043C1F6FF737A6C1A608F
S32D0001008843F61400C1F6FF704FF0000108F06CFB43F61400C1F6FF704FF0010108F0C2FB43F61400C1F6FF705B
S32D000100B04DF6F841C0F2010108F0EEFC40F20443C1F6FF731B687B6407F12C03786C19464FF0030202F0FEFF6E
S32D000100D803467B6440F20443C1F6FF737A6C1A604BE240F23C43C1F6FF731B68012B73D143F61400C1F6FF7062
S32D000101004FF0000108F034FB43F61400C1F6FF704FF0010108F08AFB43F61400C1F6FF704DF60C51C0F2010171
S32D0001012808F0B6FC43F2DC60C1F6FF7007F030FD43F61400C1F6FF704DF62851C0F2010108F0A6FC4FF0000384
S32D000101503B644DF65C53C0F2010307F11C040FCB84E80F0007F11C03386C19464FF0040202F0B0FF03463B64E4
S32D0001017840F20843C1F6FF733A6C1A6043F61400C1F6FF704FF0000108F0EEFA43F61400C1F6FF704FF001014B
S32D000101A008F044FB43F61400C1F6FF704DF63451C0F2010108F070FC4FF000033B6407F11C03386C19464FF06C
S32D000101C8040202F083FF03463B6440F20C43C1F6FF733A6C1A60D0E140F23C43C1F6FF731B68022B16D140F288
S32D000101F02443C1F6FF731B78002B07D040F22443C1F6FF734FF000021A70BAE140F22443C1F6FF734FF001028F
S32D000102181A70B2E140F23C43C1F6FF731B68032B16D140F22543C1F6FF731B78002B07D040F22543C1F6FF730D
S32D000102404FF000021A709CE140F22543C1F6FF734FF001021A7094E140F23C43C1F6FF731B68042B16D140F29E
S32D000102682643C1F6FF731B78002B07D040F22643C1F6FF734FF000021A707EE140F22643C1F6FF734FF001024C
S32D000102901A7076E140F23C43C1F6FF731B68052B16D140F22743C1F6FF731B78002B07D040F22743C1F6FF73CB
S32D000102B84FF000021A7060E140F22743C1F6FF734FF001021A7058E140F23C43C1F6FF731B68062B62D143F24B
S32D000102E08060C1F6FF7007F0C1F90346002BF6D142E043F2C860C1F6FF7006F0D1FC034643F61400C1F6FF70D9
S32D00010308194608F02BFB43F61400C1F6FF704DF64051C0F2010108F0D9FA43F2CC60C1F6FF7006F0B9FC034608
S32D0001033043F61400C1F6FF70194608F013FB43F61400C1F6FF704DF64051C0F2010108F0C1FA43F2D060C1F6FC
S32D00010358FF7006F0A1FC034643F61400C1F6FF70194608F0BDFB88A1D1E9000106F028FA43F28060C1F6FF7072
S32D0001038007F074F9034683F00103DBB2002BB0D143F28060C1F6FF7007F068F90346002BF6D1EEE040F23C43A4
S32D000103A8C1F6FF731B68072B32D143F28060C1F6FF7007F057F90346002BF6D112E043F2BC60C1F6FF7006F029
S32D000103D067FC034643F61400C1F6FF70194608F083FB6BA1D1E9000106F0EEF943F28060C1F6FF7007F03AF901
S32D000103F8034683F00103DBB2002BE0D143F28060C1F6FF7007F02EF90346002BF6D1B4E040F23C43C1F6FF73AB
S32D000104201B68082B74D143F28060C1F6FF7007F01DF90346002BF6D143F2D460C1F6FF700AF088F943F2D460BC
S32D00010448C1F6FF700AF03CFE42E043F2D460C1F6FF700AF00FFF034643F61400C1F6FF70194608F07BFA43F6B1
S32D000104701400C1F6FF704DF64051C0F2010108F029FA43F2D460C1F6FF700AF0D7FE034643F61400C1F6FF7066
S32D00010498194608F063FA43F61400C1F6FF704DF64051C0F2010108F011FA43F2D460C1F6FF700AF0CFFE0346E4
S32D000104C043F61400C1F6FF70194608F00DFB30A1D1E9000106F078F943F28060C1F6FF7007F0C4F8034683F09E
S32D000104E80103DBB2002BB0D143F2D460C1F6FF700AF018FE43F28060C1F6FF7007F0B2F80346002BF6D138E0DA
S32D0001051040F23C43C1F6FF731B68092B31D143F61400C1F6FF704DF64451C0F2010108F0B3FA40F22843C1F631
S32D00010538FF73D3E90023C7E90E234DF67053C0F201033C461D460FCD0FC495E8030084E803003B46D7E90E01D3
S32D000105601A464FF0030302F027FC02460B46C7E90E2340F22843C1F6FF73D7E90E01C3E9000107F14807BD46AC
S32D00010588B0BD00BFAFF300809A9999999999B93F80B582B000AF786039607B68012B40F0FC803A684FF6FF73CC
S32D000105B09A4240F0F68043F27860C1F6FF704FF0000105F09FFD43F27C60C1F6FF704FF0010105F097FD43F260
S32D000105D88060C1F6FF704FF0030106F0ABFF43F28460C1F6FF704FF0000106F093FD47F25133C0F2010343F25E
S32D000106008460C1F6FF70194643F6A002C1F6FF720BF0EAFF43F2A060C1F6FF704FF0010106F07CFD47F25133B3
S32D00010628C0F2010343F2A060C1F6FF70194643F6A002C1F6FF720BF0D3FF43F2BC60C1F6FF704FF0070106F0AF
S32D0001065015FB43F2C060C1F6FF704FF0080106F039F943F2C460C1F6FF704FF0090106F031F943F2C860C1F684
S32D00010678FF704FF0100106F0FDFA43F2CC60C1F6FF704FF0120106F0F5FA43F2D060C1F6FF704FF0140106F014
S32D000106A0EDFA43F2D460C1F6FF700AF00FF843F2DC60C1F6FF704FF0000107F009F943F2E860C1F6FF704FF002
S32D000106C8200109F0BDFD43F2EC60C1F6FF7005F007FA40F20043C1F6FF731A6843F22C73C1F6FF731A6040F2C9
S32D000106F00443C1F6FF731A6843F23073C1F6FF731A6043F23C70C1F6FF7001F08FF943F24870C1F6FF704FF498
S32D00010718FA7100F0C5FE43F25070C1F6FF7001F0D7FB43F25C70C1F6FF7001F0D1FB43F26870C1F6FF7001F0AE
S32D00010740CBFB43F27470C1F6FF7001F0C5FB43F28070C1F6FF7001F0BFFB43F28C70C1F6FF7001F0B9FB43F2AD
S32D000107689870C1F6FF7001F0B3FB43F2A470C1F6FF7001F0ADFB43F2B070C1F6FF7001F0A7FB43F2BC70C1F667
S32D00010790FF7001F0A1FB43F2C870C1F6FF7001F09BFB07F10807BD4680BD00BF80B500AF4FF001004FF6FF7145
S32D000107B8FFF7EEFE80BD00BF90B583B000AF06F02BF843F22073C1F6FF73D3E90023FBF71FFE02460B46C7E9CC
S32D000107E0002343F22873C1F6FF731B681846FBF761FF40F22843C1F6FF73D3E90023FBF7BFFF02460B464FF06E
S32D0001080801010C4610461946D7E90023FCF726FA0346002B02D14FF000031C46E3B2002B00F0858143F61400D4
S32D00010830C1F6FF704FF0000107F09AFF43F61400C1F6FF704FF0010107F0F0FF43F28060C1F6FF7006F00AFFCF
S32D000108580346002B0CD000F07BFA43F28060C1F6FF7006F0FFFE0346002BF6D1FEF7E0FD43F2D460C1F6FF70F2
S32D000108800AF0FCFC034643F61400C1F6FF70194608F068F843F61400C1F6FF704DF68851C0F2010108F016F89B
S32D000108A843F2D460C1F6FF700AF0C4FC034643F61400C1F6FF70194608F050F843F61400C1F6FF704DF68851EE
S32D000108D0C0F2010107F0FEFF43F2D460C1F6FF700AF0BCFC034643F61400C1F6FF70194608F0FAF843F2C860AE
S32D000108F8C1F6FF7006F0D0F9034643F61400C1F6FF70194608F02AF843F61400C1F6FF704DF68851C0F2010174
S32D0001092007F0D8FF43F2CC60C1F6FF7006F0B8F9034643F61400C1F6FF70194608F012F843F61400C1F6FF701C
S32D000109484DF68851C0F2010107F0C0FF43F2D060C1F6FF7006F0A0F9034643F61400C1F6FF70194608F0BCF819
S32D0001097043F61400C1F6FF704DF68C51C0F2010107F0A8FF43F22C73C1F6FF731B6843F61400C1F6FF70194621
S32D0001099808F092F843F61400C1F6FF704DF69C51C0F2010107F092FF43F23073C1F6FF731B6843F61400C1F647
S32D000109C0FF70194608F07CF843F61400C1F6FF704DF6AC51C0F2010107F07CFF40F23043C1F6FF731B78002B69
S32D000109E80AD143F61400C1F6FF704DF6BC51C0F2010108F04DF846E040F23043C1F6FF731B78012B0AD143F68A
S32D00010A101400C1F6FF704DF6C851C0F2010108F03BF834E040F23043C1F6FF731B78022B0AD143F61400C1F6C1
S32D00010A38FF704DF6D051C0F2010108F029F822E040F23043C1F6FF731B78032B0AD143F61400C1F6FF704DF6CD
S32D00010A60D851C0F2010108F017F810E040F23043C1F6FF731B78042B09D143F61400C1F6FF704DF6E451C0F28C
S32D00010A88010108F005F843F61400C1F6FF704DF6EC51C0F2010107F019FF43F23473C1F6FF731B6843F61400BD
S32D00010AB0C1F6FF70194608F017F843F23473C1F6FF731B681846FBF707FE02460B464FF001010C4610461946CD
S32D00010AD81DA3D3E90023FCF7C1F80346002B02D14FF000031C46E3B2002B0AD043F61400C1F6FF704DF6006108
S32D00010B00C0F2010107F0C8FF09E043F61400C1F6FF704DF60461C0F2010107F0BDFF43F22873C1F6FF731B686D
S32D00010B2803F1010243F22873C1F6FF731A6043F2EC60C1F6FF7004F0FBFF07F10C07BD4690BD00BFAFF3008063
S32D00010B50F6285C8FC2F5D03F80B500AF40F23043C1F6FF734FF000021A7040F20043C1F6FF731A6843F22C7336
S32D00010B78C1F6FF731A6040F20443C1F6FF731A6843F23073C1F6FF731A6040F20443C1F6FF731B681846FCF796
S32D00010BA0DBF9034643F27C60C1F6FF70194605F0DBFA40F20043C1F6FF731B68C3F100031846FCF7C9F9034675
S32D00010BC843F27860C1F6FF70194605F0C9FA80BD80B500AF40F23043C1F6FF734FF001021A7040F20043C1F6CD
S32D00010BF0FF731A6843F22C73C1F6FF731A6040F20443C1F6FF731A6843F23073C1F6FF731A6040F20443C1F69C
S32D00010C18FF731B681846FCF79BF9034643F27C60C1F6FF70194605F09BFA40F20043C1F6FF731B681846FCF7F8
S32D00010C408BF9034643F27860C1F6FF70194605F08BFA80BD80B500AF40F23043C1F6FF734FF002021A7040F2BE
S32D00010C680043C1F6FF731A6843F22C73C1F6FF731A6040F20443C1F6FF731A6843F23073C1F6FF731A6040F227
S32D00010C900443C1F6FF731B68C3F100031846FCF75BF9034643F27C60C1F6FF70194605F05BFA40F20043C1F691
S32D00010CB8FF731B68C3F100031846FCF749F9034643F27860C1F6FF70194605F049FA80BD80B500AF40F23043F5
S32D00010CE0C1F6FF734FF003021A7040F20043C1F6FF731A6843F22C73C1F6FF731A6040F20443C1F6FF731A6833
S32D00010D0843F23073C1F6FF731A6040F20443C1F6FF731B68C3F100031846FCF719F9034643F27C60C1F6FF7082
S32D00010D30194605F019FA40F20043C1F6FF731B681846FCF709F9034643F27860C1F6FF70194605F009FA80BDA9
S32D00010D5880B500AF40F23043C1F6FF734FF004021A7043F22C73C1F6FF734FF000021A6043F23073C1F6FF7332
S32D00010D804FF000021A6043F27C60C1F6FF7005F0CDF943F27860C1F6FF7005F0C7F980BD80B582B000AF786084
S32D00010DA8396040F23043C1F6FF734FF001021A7043F22C73C1F6FF737A681A6043F23073C1F6FF733A681A6073
S32D00010DD043F23073C1F6FF731B681846FCF7BCF8034643F27C60C1F6FF70194605F0BCF943F22C73C1F6FF73E5
S32D00010DF81B681846FCF7ACF8034643F27860C1F6FF70194605F0ACF907F10807BD4680BD80B582B000AF7860AA
S32D00010E20396040F23043C1F6FF734FF002021A7043F22C73C1F6FF737A681A6043F23073C1F6FF733A681A60F9
S32D00010E4843F23073C1F6FF731B68C3F100031846FCF77EF8034643F27C60C1F6FF70194605F07EF943F22C735A
S32D00010E70C1F6FF731B68C3F100031846FCF76CF8034643F27860C1F6FF70194605F06CF907F10807BD4680BDBF
S32D00010E9890B585B000AF43F27860C1F6FF7005F041F943F27C60C1F6FF7005F03BF940F21043C1F6FF731A6810
S32D00010EC040F21443C1F6FF731B6843F28460C1F6FF7011461A4606F0EBF940F20843C1F6FF731B6843F2DC6064
S32D00010EE8C1F6FF70194606F00DFD40F20C43C1F6FF731B6843F2DC60C1F6FF70194606F01FFD40F22743C1F6CE
S32D00010F10FF731B78002B13D043F2D460C1F6FF7009F018FC43F2D460C1F6FF700AF0CCF843F2D460C1F6FF7027
S32D00010F380AF01EF903467B6040F22443C1F6FF731B78002B41D0764B3B6013E043F2BC60C1F6FF7005F0A0FE6B
S32D00010F6003463B606CA1D1E9000105F02DFC43F61400C1F6FF70396807F0B6FD3868FBF7ABFB02460B464FF0CA
S32D00010F8801010C461046194663A3D3E90023FBF783FE0346002B02D14FF000031C46E3B2002B0ED043F280603B
S32D00010FB0C1F6FF7006F05AFB034683F00103DBB2002B02D04FF0010301E04FF00003002BC0D140F22543C1F6E4
S32D00010FD8FF731B78002B05D005F01EFC02460B46C7E9022305F018FC43F22073C1F6FF73C3E9000143F22873F1
S32D00011000C1F6FF734FF000021A6000F091F840F22743C1F6FF731B78002B16D043F2D460C1F6FF700AF082F8F8
S32D0001102843F61400C1F6FF704DF60C61C0F2010107F04CFC43F61400C1F6FF70796807F03BFD40F22543C1F6AF
S32D00011050FF731B78002B1FD005F0E2FB02460B4610461946D7E90223FBF7D6F902460B46C7E9022343F61400D1
S32D00011078C1F6FF704DF61C61C0F2010107F026FC43F61400C1F6FF70D7E9022307F03CFD43F61400C1F6FF709B
S32D000110A04DF62C61C0F2010107F014FC43F2E860C1F6FF7009F0ACF8034643F61400C1F6FF70194607F010FD37
S32D000110C843F61400C1F6FF704DF63861C0F2010107F0DEFC00BF43F28060C1F6FF7006F0C1FA034683F00103BA
S32D000110F0DBB2002BF3D143F27860C1F6FF7005F015F843F27C60C1F6FF7005F00FF807F11407BD4690BD00BFCB
S32D000111189A9999999999B93F333333333333D33F9A99193FAFF3008080B582B000AF43F23873C1F6FF734FF0CA
S32D0001114000021A6085E043F23C73C1F6FF73196843F23873C1F6FF731B681A4613464FEAC3039B1A4FEAC30319
S32D00011168CB18184600F086FA0346FB71FB79012B15D143F23C73C1F6FF73196843F23873C1F6FF731B681A46F2
S32D0001119013464FEAC3039B1A4FEAC303CB18184600F0D0FB49E0FB79022B15D143F23C73C1F6FF73196843F2B5
S32D000111B83873C1F6FF731B681A4613464FEAC3039B1A4FEAC303CB18184600F0D5FB30E0FB79032B15D143F277
S32D000111E03C73C1F6FF73196843F23873C1F6FF731B681A4613464FEAC3039B1A4FEAC303CB18184600F0DAFB89
S32D0001120817E0FB79042B14D143F23C73C1F6FF73196843F23873C1F6FF731B681A4613464FEAC3039B1A4FEA78
S32D00011230C303CB18184600F0DFFB43F23873C1F6FF731B6803F1010243F23873C1F6FF731A6043F23873C1F621
S32D00011258FF731B688F2BCCBF00230123DBB2002B7FF46DAF07F10807BD4680BD80B582B000AF786043F614001D
S32D00011280C1F6FF704DF64C61C0F2010107F022FB43F61400C1F6FF70796807F011FC4FF000004FF07E5101F5C6
S32D000112A8E00105F08DFA07F10807BD4680BD00BF80B582B000AF786043F61400C1F6FF704DF65461C0F20101A7
S32D000112D007F000FB43F61400C1F6FF70796807F003FC4FF000004FF07E5101F5E00105F06BFA07F10807BD462B
S32D000112F880BD00BF80B582B000AFC7E9000143F61400C1F6FF704DF65C61C0F2010107F0DDFA43F61400C1F60B
S32D00011320FF70D7E9002307F0F3FB4FF000004FF07E5101F5E00105F047FA07F10807BD4680BD00BF80B500AF23
S32D0001134843F61400C1F6FF704DF66861C0F2010107F0BCFA4FF000004FF07E5101F5E00105F02EFA80BD00BF59
S32D0001137080B483B000AF78607B684FF004021A747B68184607F10C07BD4680BC704700BF80B483B000AF7860BB
S32D0001139839607B683A681A607B684FF001021A7407F10C07BD4680BC704700BF80B483B000AF786039607B68B1
S32D000113C03A685A607B684FF002021A7407F10C07BD4680BC704700BF80B483B000AF786039607B683A689A6028
S32D000113E87B684FF003021A7407F10C07BD4680BC704700BF80B483B000AF786039607B683A68DA607B684FF0F9
S32D0001141004021A7407F10C07BD4680BC704700BF80B483B000AF78607B681B7C184607F10C07BD4680BC704792
S32D0001143880B582B000AF786039607B681B683868984707F10807BD4680BD00BF80B582B000AF786039607B68A9
S32D000114605B683868984707F10807BD4680BD00BF80B584B000AFF860C7E90023FB689B68D7E90001984707F1D4
S32D000114881007BD4680BD00BF80B582B000AF78607B68DB68984707F10807BD4680BD00BFF0B583B000AF7860C7
S32D000114B039607B683A685A603C6823464FEA83031B194FEA830318460BF0E4F8064633461D4604F1FF331C4690
S32D000114D806E02846FFF748FF05F1140504F1FF34B4F1FF3F0CBF00230123DBB2002BF0D17B681E607B6818460D
S32D0001150007F10C07BD46F0BD80B584B000AFF860B9607A60FB681968BA6813464FEA83039B184FEA8303CB182B
S32D0001152818467968FFF730FF07F11007BD4680BD80B584B000AFF860B9607A60FB681968BA6813464FEA830360
S32D000115509B184FEA8303CB1818467968FFF72AFF07F11007BD4680BD80B584B000AFF860B9607A60FB68196823
S32D00011578BA6813464FEA83039B184FEA8303CB1818467968FFF724FF07F11007BD4680BD80B584B000AFF8609E
S32D000115A0B9607A60FB681968BA6813464FEA83039B184FEA8303CB1818467968FFF71EFF07F11007BD4680BD15
S32D000115C880B483B000AF78607B684FF000021A607B684FF000025A607B680C4A9A6079684FF000024FF00003F3
S32D000115F0C1E904237B684FF004021A767B684FF000025A767B68184607F10C07BD4680BC704700BF000000004E
S32D0001161880B483B000AF78607B681B68184607F10C07BD4680BC704780B483B000AF78607B685B68184607F106
S32D000116400C07BD4680BC704780B483B000AF78607B689B68184607F10C07BD4680BC704780B483B000AF786051
S32D000116687B68D3E904231046194607F10C07BD4680BC704780B483B000AF78607B681B7E184607F10C07BD4601
S32D0001169080BC704780B483B000AF78607B685B7E184607F10C07BD4680BC704780B586B000AFF860B9607A60CA
S32D000116B843F24873C1F6FF731968BA6813464FEA83039B184FEA8303CB181846FFF7A4FE0346FB75FB7D012B87
S32D000116E005D1F868B9687A6800F070F820E0FB7D022B09D17868FBF72FFC0346F868B9681A4600F07DF813E04C
S32D00011708FB7D032B09D17868FAF7D0FF02460B46F868B96800F08AF806E0FB7D042B03D1F868B96800F09EF89E
S32D0001173007F11807BD4680BD80B586B000AFF860B960C7E9002343F24873C1F6FF731968BA6813464FEA830301
S32D000117589B184FEA8303CB181846FFF75DFE0346FB75FB7D012B0AD1D7E90001FBF79EFA0346F868B9681A46B1
S32D0001178000F024F81EE0FB7D022B0AD1D7E90001FBF7D8FA0346F868B9681A4600F030F810E0FB7D032B06D17C
S32D000117A8F868B968D7E9002300F040F806E0FB7D042B03D1F868B96800F054F807F11807BD4680BD80B485B0A8
S32D000117D000AFF860B9607A60FB68BA681A60FB687A685A60FB684FF001021A76FB684FF001025A7607F1140735
S32D000117F8BD4680BC704700BF80B485B000AFF860B9607A60FB68BA681A60FB687A689A60FB684FF002021A7636
S32D00011820FB684FF001025A7607F11407BD4680BC704700BF80B485B000AFF860B960C7E90023FB68BA681A6001
S32D00011848F968D7E90023C1E90423FB684FF003021A76FB684FF001025A7607F11407BD4680BC704780B483B040
S32D0001187000AF786039607B683A681A607B684FF004021A767B684FF001025A7607F10C07BD4680BC704700BFBD
S32D0001189882B080B582B000AF786007F1100181E80C0007F11000FFF7B3FE02467B681A6007F11000FFF7B8FE7B
S32D000118C002467B685A6007F11000FFF7BDFE02467B689A6007F11000FFF7C2FE02460B467968C1E9042307F135
S32D000118E81000FFF7C7FE03461A467B681A7607F11000FFF7CBFE03461A467B685A7607F10807BD46BDE8804058
S32D0001191002B0704780B483B000AF78600B46FB70FB78002B04D07B684FF001025A7603E07B684FF000025A7657
S32D0001193807F10C07BD4680BC704700BF80B582B000AF786043F24873C1F6FF7319687B681B681A4613464FEAE0
S32D0001196083039B184FEA8303CA187B685B6810461946FFF761FD07F10807BD4680BD00BF80B582B000AF7860DB
S32D0001198843F24873C1F6FF7319687B681B681A4613464FEA83039B184FEA8303CA187B689B6810461946FFF7D3
S32D000119B051FD07F10807BD4680BD00BF80B582B000AF786043F24873C1F6FF7319687B681B681A4613464FEAD4
S32D000119D883039B184FEA8303C9187B68D3E904230846FFF741FD07F10807BD4680BD00BF80B582B000AF7860CB
S32D00011A0043F24873C1F6FF7319687B681B681A4613464FEA83039B184FEA8303CB181846FFF736FD07F108075C
S32D00011A28BD4680BDF0B583B000AF78607B684FF000025A607B684FF090029A604FF4FC500AF024FE06463346F4
S32D00011A501D464FF08F0406E02846FFF7B5FD05F1380504F1FF34B4F1FF3F0CBF00230123DBB2002BF0D17B688A
S32D00011A781E607B68184607F10C07BD46F0BD00BF80B582B000AF78607B6803F110031846FFF796FD7B684FF025
S32D00011AA000021A707B684FF000025A607A684DF67063C0F2010393607B684FF0000283F848207B684FF00002E1
S32D00011AC8DA647B68184607F10807BD4680BD00BF80B483B000AF786039607B683A68DA6407F10C07BD4680BCD6
S32D00011AF0704700BF80B485B000AFF860B9607A60FB684FF000021A70FB68BA685A60FB687A689A6007F114072F
S32D00011B18BD4680BC704700BF82B0F0B58FB00CAF7860396007F1200181E80C0007F12000FFF7A0FD03461A46C5
S32D00011B407B681A707B683A685A607B6803F110066C4607F128050FCD0FC40FCD0FC495E80F0084E80F0007F1A9
S32D00011B68200191E80C003046FFF792FE07F12000FFF74EFD02467B68DA6407F10C07BD46BDE8F04002B070479E
S32D00011B9082B0F0B59DB00CAF786007F1580181E80C0007F1580000F06BF803461A467B681A7007F1580000F0B0
S32D00011BB86FF802467B685A6007F1580000F074F802467B689A607B6803F1100607F10803184607F1580100F052
S32D00011BE073F86C4607F110050FCD0FC40FCD0FC495E80F0084E80F0007F108030CCB3046FFF74AFE07F1580069
S32D00011C0800F078F803461A467B6883F8482007F1580000F025F802467B68DA6407F14407BD46BDE8F04002B04B
S32D00011C30704700BF80B483B000AF78600B46FB70FB78002B05D07B684FF0010283F8482004E07B684FF00002E2
S32D00011C5883F8482007F10C07BD4680BC704700BF80B483B000AF78607B68DB6C184607F10C07BD4680BC704743
S32D00011C8080B483B000AF78607B681B78184607F10C07BD4680BC704780B483B000AF78607B685B68184607F188
S32D00011CA80C07BD4680BC704780B483B000AF78607B689B68184607F10C07BD4680BC7047B0B483B000AF7860B3
S32D00011CD039607A683B68144603F110050FCD0FC40FCD0FC40FCD0FC495E8030084E80300786807F10C07BD467A
S32D00011CF8B0BC704780B483B000AF78607B6893F84830184607F10C07BD4680BC704700BF80B584B000AF7860B8
S32D00011D207B6803F110031846FFF7A8FC0346FB737B681B78002B09D17B689B6843F61400C1F6FF70194606F0D2
S32D00011D48A7FEC0E0FB7B012B30D143F61400C1F6FF704DF67461C0F2010106F0B7FD7B6803F110031846FFF75D
S32D00011D7053FC034643F61400C1F6FF70194606F0D7FD43F61400C1F6FF704DF68061C0F2010106F09FFD7B6850
S32D00011D9803F110031846FFF747FC034643F61400C1F6FF70194606F087FE8CE0FB7B022B30D143F61400C1F6D4
S32D00011DC0FF704DF67461C0F2010106F083FD7B6803F110031846FFF71FFC034643F61400C1F6FF70194606F0D9
S32D00011DE8A3FD43F61400C1F6FF704DF68861C0F2010106F06BFD7B6803F110031846FFF71FFC034643F614008C
S32D00011E10C1F6FF70194606F067FE58E0FB7B032B30D143F61400C1F6FF704DF67461C0F2010106F04FFD7B6882
S32D00011E3803F110031846FFF7EBFB034643F61400C1F6FF70194606F06FFD43F61400C1F6FF704DF69061C0F264
S32D00011E60010106F037FD7B6803F110031846FFF7F7FB02460B4643F61400C1F6FF7006F047FE24E0FB7B042B07
S32D00011E8821D143F61400C1F6FF704DF67461C0F2010106F01BFD7B6803F110031846FFF7B7FB034643F6140066
S32D00011EB0C1F6FF70194606F03BFD43F61400C1F6FF704DF69861C0F2010106F003FD07F11007BD4680BD00BFE9
S32D00011ED8F0B583B000AF78607B684FF000025A604FF48C600AF0D2FB064633461D464FF00D0406E02846FFF7E6
S32D00011F00C3FD05F1500504F1FF34B4F1FF3F0CBF00230123DBB2002BF0D17B681E607B684FF000021A727B681D
S32D00011F28184607F10C07BD46F0BD00BF2DE9F04198B012AF786039606B4698467B685968F960084602464FF090
S32D00011F5000034FF001044FF00005121943EB05034FF4207000FB03F44FF0000000FB02F020184FF42074A2FBD9
S32D00011F780423C01803460B4603F1010213464FEA83039B184FEA0313084602464FF000034FF001044FF0000530
S32D00011FA0121943EB05034FF4207000FB03F44FF0000000FB02F020184FF42074A2FB0423C01803460B4603F187
S32D00011FC8010213464FEA83039B184FEA031303F1070303F107034FEAD3034FEAC303ADEB030D12AB03F1070360
S32D00011FF04FEAD3034FEAC303BB60BB681D460C4606E02846FFF740FD05F1500504F1FF34B4F1FF3F0CBF0023F6
S32D000120180123DBB2002BF0D14FF000037B6125E07A6913464FEA83039B184FEA0313BA68D5187B6819687A6986
S32D0001204013464FEA83039B184FEA0313CC18694604F108024FF04803084611461A4609F031FA94E80C0028461C
S32D00012068FFF792FD7B6903F101037B617B685A687B699A42D4BF00230123DBB2002BCFD17B685A6813464FEA3E
S32D0001209083039B184FEA0313BA68D2187B685B6803F10103104619463A68FFF723FD7B685B6803F101027B6802
S32D000120B85A607B685B681C4623464FEA83031B194FEA031318460AF0E1FA064633461D4604F1FF331C4606E0C2
S32D000120E02846FFF7D1FC05F1500504F1FF34B4F1FF3F0CBF00230123DBB2002BF0D17B681E604FF000033B6180
S32D0001210825E07B6819683A6913464FEA83039B184FEA0313CD18B9683A6913464FEA83039B184FEA0313CC18DB
S32D00012130694604F108024FF04803084611461A4609F0C0F994E80C002846FFF721FD3B6903F101033B617B686C
S32D000121585A683B699A42D4BF00230123DBB2002BCFD1C54607F11807BD46BDE8F08100BF2DE9F0419AB012AF98
S32D00012180F860B9607A606B469846FB6859687961084602464FF000034FF001044FF00005121943EB05034FF454
S32D000121A8207000FB03F44FF0000000FB02F020184FF42074A2FB0423C01803460B4603F1010213464FEA830306
S32D000121D09B184FEA0313084602464FF000034FF001044FF00005121943EB05034FF4207000FB03F44FF0000019
S32D000121F800FB02F020184FF42074A2FB0423C01803460B4603F1010213464FEA83039B184FEA031303F1070377
S32D0001222003F107034FEAD3034FEAC303ADEB030D12AB03F107034FEAD3034FEAC3033B613B691D460C4606E037
S32D000122482846FFF71DFC05F1500504F1FF34B4F1FF3F0CBF00230123DBB2002BF0D14FF00003FB6125E0FA6903
S32D0001227013464FEA83039B184FEA03133A69D518FB681968FA6913464FEA83039B184FEA0313CC18694604F1AC
S32D0001229808024FF04803084611461A4609F00EF994E80C002846FFF76FFCFB6903F10103FB61FB685A68FB69E6
S32D000122C09A42D4BF00230123DBB2002BCFD1FB685A6813464FEA83039B184FEA03133A69D218FB685B6803F1FB
S32D000122E8010310461946BA68FFF700FCFB685A6813464FEA83039B184FEA03133A69D31818467968FFF7E4FB19
S32D00012310FB685B6803F10102FB685A60FB685B681C4623464FEA83031B194FEA031318460AF0B0F9064633466B
S32D000123381D4604F1FF331C4606E02846FFF7A0FB05F1500504F1FF34B4F1FF3F0CBF00230123DBB2002BF0D1C4
S32D00012360FB681E604FF00003BB6125E0FB681968BA6913464FEA83039B184FEA0313CD183969BA6913464FEAAD
S32D0001238883039B184FEA0313CC18694604F108024FF04803084611461A4609F08FF894E80C002846FFF7F0FB26
S32D000123B0BB6903F10103BB61FB685A68BB699A42D4BF00230123DBB2002BCFD1C54607F12007BD46BDE8F0812C
S32D000123D882B0F0B599B012AF786007F1300181E80C006B461E467B685968F960084602464FF000034FF0010451
S32D000124004FF00005121943EB05034FF4207000FB03F44FF0000000FB02F020184FF42074A2FB0423C018034623
S32D000124280B4603F1010213464FEA83039B184FEA0313084602464FF000034FF001044FF00005121943EB050362
S32D000124504FF4207000FB03F44FF0000000FB02F020184FF42074A2FB0423C01803460B4603F1010213464FEA9E
S32D0001247883039B184FEA031303F1070303F107034FEAD3034FEAC303ADEB030D12AB03F107034FEAD3034FEAF8
S32D000124A0C303BB60BB681D460C4606E02846FFF7EBFA05F1500504F1FF34B4F1FF3F0CBF00230123DBB2002B05
S32D000124C8F0D143F61400C1F6FF704FF0000106F04BF943F61400C1F6FF704FF0010106F0A1F94FF000037B61D5
S32D000124F025E07A6913464FEA83039B184FEA0313BA68D5187B6819687A6913464FEA83039B184FEA0313CC1867
S32D00012518694604F108024FF04803084611461A4608F0CCFF94E80C002846FFF72DFB7B6903F101037B617B68E5
S32D000125405A687B699A42D4BF00230123DBB2002BCFD17B685A6813464FEA83039B184FEA0313BA6802EB030CDB
S32D000125687B685B6803F1010E6C4607F138050FCD0FC40FCD0FC495E80F0084E80F0007F1300191E80C006046FB
S32D000125907146FFF7C5FA7B685B6803F101027B685A604FF000033B6125E07B6819683A6913464FEA83039B18C1
S32D000125B84FEA0313CD18B9683A6913464FEA83039B184FEA0313CC18694604F108024FF04803084611461A46C1
S32D000125E008F070FF94E80C002846FFF7D1FA3B6903F101033B617B685A683B699A42D4BF00230123DBB2002BBF
S32D00012608CFD1B54607F11C07BD46BDE8F04002B0704700BF80B483B000AF78600B46FB707B68FA781A7207F16A
S32D000126300C07BD4680BC704780B483B000AF786039607B683A685A6007F10C07BD4680BC704700BF00000000EC
S32D000126582DE9B04F8EB002AF78606B461D4643F61400C1F6FF704FF0000106F07DF843F61400C1F6FF704FF093
S32D00012680010106F0D3F807F10C0318464FF0030104F054FF7B685B6803F1FF343C62234618464FF000014FF0C8
S32D000126A801024FF00003121843EB01034FEAD2614FEA431B41EA0B0B4FEA421A21460A464FF000034FF0010050
S32D000126D04FF00001121843EB01034FEAD2614FEA431941EA09094FEA4218234603F101034FEA830303F1070350
S32D000126F803F107034FEAD3034FEAC303ADEB030D02AB03F107034FEAD3034FEAC303FB6143F61400C1F6FF7077
S32D000127204FF0010106F082F84FF00003FB625EE07B681968FA6A13464FEA83039B184FEA0313CB181846FFF7E3
S32D00012748E7FA7B681968FA6A13464FEA83039B184FEA0313CB181846FFF79AFA034603F1FF3213464FEA0313BE
S32D000127709B1803F10601FB69FA6A43F822107B681968FA6A13464FEA83039B184FEA0313CB181846FFF7B2FA92
S32D000127980346002B23D043F61400C1F6FF704FF0030106F03FF8FB69FA6A53F8223003F102034FF00502009292
S32D000127C043F61400C1F6FF704FF00C011A464FF0050306F097FE43F61400C1F6FF704FF0010106F023F8FB6ACF
S32D000127E803F10103FB627B685A68FB6A9A42D4BF00230123DBB2002B96D14FF00003BB617B685B6803F1FF3364
S32D000128107B614FF00003BB624FF000033B6143F61400C1F6FF704FF0020105F0FFFFFB69BA6A53F822307868D3
S32D00012838194600F0ADF84FF0010387F8273079E0BB6A3B6107F10C03184604F0F9FE0346002B14D000BF07F1EB
S32D000128600C03184604F0F0FE0346002BF7D1BA6ABB699A4202D17B69BB6236E0BB6A03F1FF33BB6231E007F13F
S32D000128880C03184604F002FF0346002B14D000BF07F10C03184604F0F9FE0346002BF7D1BA6A7B699A4202D165
S32D000128B0BB69BB6219E0BB6A03F10103BB6214E007F10C03184604F0D1FE0346002B0CD000BF07F10C031846F5
S32D000128D804F0C8FE0346002BF7D14FF0000387F82730BA6A3B699A421FD043F61400C1F6FF704FF0000105F088
S32D0001290095FFFB693A6953F822307868194600F043F843F61400C1F6FF704FF0020105F085FFFB69BA6A53F805
S32D0001292822307868194600F033F817A1D1E9000103F046FF97F82730002B81D143F61400C1F6FF704FF0010112
S32D0001295005F06CFF7B681B7A002B0ED07B681968BA6A13464FEA83039B184FEA0313CB181846FFF779F90346E3
S32D00012978BB62BB6AAD46184607F13007BD46BDE8B08F00BFAFF300809A9999999999B93F80B584B002AF786025
S32D000129A039603B68A3F105034FF01102009243F61400C1F6FF704FF001011A464FF49B7306F0DAFC07F1080714
S32D000129C8BD4680BD80B500AF43F25070C1F6FF704DF6A061C0F20101FFF7A8FA43F25070C1F6FF704DF6B4619E
S32D000129F0C0F20101FFF79EFA43F25070C1F6FF704DF6BC61C0F20101FFF794FA43F25070C1F6FF704DF6D06134
S32D00012A18C0F20101FFF78AFA43F25070C1F6FF704DF6E461C0F20101FFF780FA43F25070C1F6FF704DF6F861E3
S32D00012A40C0F20101FFF776FA43F25070C1F6FF704DF60C71C0F20101FFF76CFA43F25070C1F6FF704DF6207173
S32D00012A68C0F20101FFF762FA43F25070C1F6FF704DF63071C0F20101FFF758FA43F25070C1F6FF704DF640712F
S32D00012A90C0F20101FFF74EFA80BD00BF80B500AF43F25C70C1F6FF704DF65871C0F20101FFF740FA43F25C702D
S32D00012AB8C1F6FF704DF66471C0F20101FFF736FA43F25C70C1F6FF704DF67071C0F20101FFF72CFA43F25C70BB
S32D00012AE0C1F6FF704DF67C71C0F20101FFF722FA43F25C70C1F6FF704DF68871C0F20101FFF718FA43F25C708B
S32D00012B08C1F6FF704DF69471C0F20101FFF70EFA43F25C70C1F6FF704DF6A071C0F20101FFF704FA43F25C705A
S32D00012B30C1F6FF704DF6AC71C0F20101FFF7FAF943F25C70C1F6FF704DF6B871C0F20101FFF7F0F943F25C702C
