S01900002E2E2F536C6F7750726F6772657373696F6E2E73313910
S32D0000C000000000206D550100C9580100C9580100C9580100C9580100C958010000000000000000000000000085
S32D0000C02800000000C9580100C958010000000000C9580100C9580100C9580100C9580100C9580100C9580100DA
S32D0000C050C9580100C9580100C9580100C9580100C9580100C9580100C9580100C9580100C9580100C95801006E
S32D0000C078C9580100C9580100C9580100C9580100C9580100C9580100C9580100C9580100C9580100C958010046
S32D0000C0A0C9580100C9580100C9580100C9580100C9580100C9580100C9580100C9580100C9580100C95801001E
S32D0000C0C8C9580100C9580100C9580100C9580100C9580100C9580100C9580100C9580100C9580100C9580100F6
S32D0000C0F0C9580100C99D0100C9580100C9580100C9580100C9580100C9580100C9580100C9580100C958010089
S32D0000C118C9580100C9580100C9580100C9580100C9580100C9580100C9580100C9580100C9580100C9580100A5
S32D0000C140C9580100C9580100C9580100C9580100D5680100C9580100C9580100C9580100C9580100C958010061
S32D0000C168C9580100C9580100C9580100C9580100C9580100C9580100C9580100C9580100C9580100C958010055
S32D0000C190C9580100C9580100C9580100C9580100C9580100C958010019590100C9580100C9580100C9580100DC
S32D0000C1B8C9580100C9580100C9580100C9580100C9580100C9580100C9580100C9580100C9580100C958010005
S32D0000C41081F0004102E000BF83F0004330B54FEA41044FEA430594EA050F08BF90EA020F1FBF54EA000C55EAC6
S32D0000C438020C7FEA645C7FEA655C00F0E2804FEA5454D4EB5555B8BF6D420CDD2C4480EA020281EA030382EA0F
S32D0000C460000083EA010180EA020281EA0303362D88BF30BD11F0004F4FEA01314FF4801C4CEA113102D0404263
S32D0000C48861EB410113F0004F4FEA03334CEA133302D0524263EB430394EA050F00F0A780A4F10104D5F1200E8A
S32D0000C4B00DDB02FA0EFC22FA05F2801841F1000103FA0EF2801843FA05F359410EE0A5F120050EF1200E012A2D
S32D0000C4D803FA0EFC28BF4CF0020C43FA05F3C01851EBE37101F0004507D54FF0000EDCF1000C7EEB00006EEB67
S32D0000C5000101B1F5801F1BD3B1F5001F0CD349085FEA30004FEA3C0C04F101044FEA445212F5800F80F09A8000
S32D0000C528BCF1004F08BF5FEA500C50F1000041EB045141EA050130BD5FEA4C0C404141EB010111F4801FA4F114
S32D0000C5500104E9D191F0000F04BF01460020B1FA81F308BF2033A3F10B03B3F120020CDA0C3208DD02F1140C87
S32D0000C578C2F10C0201FA0CF021FA02F10CE002F11402D8BFC2F1200C01FA02F120FA0CFCDCBF41EA0C019040B1
S32D0000C5A0E41AA2BF01EB0451294330BD6FEA04041F3C1CDA0C340EDC04F11404C4F1200220FA04F001FA02F3B6
S32D0000C5C840EA030021FA04F345EA030130BDC4F10C04C4F1200220FA02F001FA04F340EA0300294630BD21FAA8
S32D0000C5F004F0294630BD94F0000F83F4801306BF81F480110134013D4EE77FEA645C18BF7FEA655C29D094EA1C
S32D0000C618050F08BF90EA020F05D054EA000C04BF1946104630BD91EA030F1EBF0021002030BD5FEA545C05D1A3
S32D0000C6404000494128BF41F0004130BD14F580043CBF01F5801130BD01F0004545F0FE4141F470014FF0000031
S32D0000C66830BD7FEA645C1ABF194610467FEA655C1CBF0B46024650EA013406BF52EA033591EA030F41F40021D7
S32D0000C69030BD00BF90F0000F04BF0021704730B54FF4806404F132044FF000054FF0000150E700BF90F0000F66
S32D0000C6B804BF0021704730B54FF4806404F1320410F0004548BF40424FF000013EE700BF42004FEAE2014FEAF9
S32D0000C6E031014FEA02701FBF12F07F4393F07F4F81F06051704792F0000F14BF93F07F4F704730B54FF460741B
S32D0000C70801F0004521F0004120E700BF50EA010208BF704730B54FF000050AE050EA010208BF704730B511F046
S32D0000C730004502D5404261EB41014FF4806404F132045FEA915C3FF4DCAE4FF003025FEADC0C18BF03325FEAA0
S32D0000C758DC0C18BF033202EBDC02C2F1200300FA03FC20FA02F001FA03FE40EA0E0021FA02F11444C1E600BF19
S32D0000C78070B54FF0FF0C4CF4E06C1CEA11541DBF1CEA135594EA0C0F95EA0C0F00F0DEF82C4481EA030621EAF3
S32D0000C7A84C5123EA4C5350EA013518BF52EA033541F4801143F4801338D0A0FB02CE4FF00005E1FB02E506F05F
S32D0000C7D00042E0FB03E54FF00006E1FB03569CF0000F18BF4EF0010EA4F1FF04B6F5007F64F5407404D25FEA0F
S32D0000C7F84E0E6D4146EB060642EAC62141EA55514FEAC52040EA5E504FEACE2EB4F1FD0C88BFBCF5E06F1ED8D2
S32D0000C820BEF1004F08BF5FEA500E50F1000041EB045170BD06F0004646EA010140EA020081EA0301B4EB5C0487
S32D0000C848C2BFD4EB0C0541EA045170BD41F480114FF0000E013C00F3AB8014F1360FDEBF002001F0004170BDF0
S32D0000C870C4F10004203C35DA0C341BDC04F11404C4F1200500FA05F320FA04F001FA05F240EA020001F0004207
S32D0000C89821F0004110EBD37021FA04F642EB06015EEA430E08BF20EAD37070BDC4F10C04C4F1200500FA04F32F
S32D0000C8C020FA05F001FA04F240EA020001F0004110EBD37041F100015EEA430E08BF20EAD37070BDC4F12005C7
S32D0000C8E800FA05F24EEA020E20FA04F301FA05F243EA020321FA04F001F0004121FA04F220EA020000EBD37028
S32D0000C9105EEA430E08BF20EAD37070BD94F0000F0FD101F00046400041EB010111F4801F08BF013CF7D041EA6D
S32D0000C938060195F0000F18BF704703F00046520043EB030313F4801F08BF013DF7D043EA0603704794EA0C0FF1
S32D0000C9600CEA135518BF95EA0C0F0CD050EA410618BF52EA4306D1D181EA030101F000414FF0000070BD50EA38
S32D0000C988410606BF1046194652EA430619D094EA0C0F02D150EA013613D195EA0C0F05D152EA03361CBF10467B
S32D0000C9B019460AD181EA030101F0004141F0FE4141F470014FF0000070BD41F0FE4141F4780170BD70B54FF04D
S32D0000C9D8FF0C4CF4E06C1CEA11541DBF1CEA135594EA0C0F95EA0C0F00F0A7F8A4EB050481EA030E52EA03359B
S32D0000CA004FEA013100F088804FEA03334FF0805545EA131343EA12634FEA022245EA111545EA10654FEA002676
S32D0000CA280EF000419D4208BF964244F1FD0404F5407402D25B084FEA3202B61A65EB03055B084FEA32024FF461
S32D0000CA5080104FF4002CB6EB020E75EB030E22BFB61A754640EA0C005B084FEA3202B6EB020E75EB030E22BF22
S32D0000CA78B61A754640EA5C005B084FEA3202B6EB020E75EB030E22BFB61A754640EA9C005B084FEA3202B6EBEA
S32D0000CAA0020E75EB030E22BFB61A754640EADC0055EA060E18D04FEA051545EA16754FEA06164FEAC30343EAAC
S32D0000CAC852734FEAC2025FEA1C1CC0D111F4801F0BD141EA00014FF000004FF0004CB6E711F4801F04BF0143AE
S32D0000CAF00020B4F1FD0C88BFBCF5E06F3FF6AFAEB5EB030C04BFB6EB020C5FEA500C50F1000041EB045170BDBC
S32D0000CB180EF0004E4EEA113114EB5C04C2BFD4EB0C0541EA045170BD41F480114FF0000E013C90E645EA060EC3
S32D0000CB408DE60CEA135594EA0C0F08BF95EA0C0F3FF43BAF94EA0C0F0AD150EA01347FF434AF95EA0C0F7FF499
S32D0000CB6825AF104619462CE795EA0C0F06D152EA03353FF4FDAE1046194622E750EA410618BF52EA43067FF432
S32D0000CB90C5AE50EA41047FF40DAF52EA43057FF4EBAE12E74FF0FF3C06E000BF4FF0010C02E000BF4FF0010C75
S32D0000CBB84DF804CD4FEA410C7FEA6C5C4FEA430C18BF7FEA6C5C1BD001B050EA410C0CBF52EA430C91EA030FEC
S32D0000CBE002BF90EA020F0020704710F1000F91EA030F58BF994208BF90422CBFD8176FEAE37040F0010070476E
S32D0000CC084FEA410C7FEA6C5C02D150EA013C07D14FEA430C7FEA6C5CD6D152EA033CD3D05DF8040B704700BFCD
S32D0000CC308446104662468C461946634600E000BF01B5FFF7B7FF002848BF10F1000F01BD4DF808EDFFF7F4FF13
S32D0000CC580CBF012000205DF808FB00BF4DF808EDFFF7EAFF34BF012000205DF808FB00BF4DF808EDFFF7E0FF18
S32D0000CC8094BF012000205DF808FB00BF4DF808EDFFF7CEFF94BF012000205DF808FB00BF4DF808EDFFF7C4FF40
S32D0000CCA834BF012000205DF808FB00BF4FEA410212F5001215D211D56FF47873B3EB625212D94FEAC12343F0D6
S32D0000CCD0004343EA505311F0004F23FA02F018BF404270474FF00000704750EA013005D111F0004008BF6FF016
S32D0000CCF8004070474FF00000704700BF4A0011D212F5001211D20DD56FF47873B3EB62520ED44FEAC12343F085
S32D0000CD20004343EA505323FA02F070474FF00000704750EA013002D14FF0FF3070474FF0000070474FEA410241
S32D0000CD48B2F1E04324BFB3F5001CDCF1FE5C0DD901F0004C4FEAC0024CEA5070B2F1004F40EB830008BF20F09E
S32D0000CD700100704711F0804F21D113F13872BCBF01F00040704741F480114FEA5252C2F11802C2F1200C10FAB1
S32D0000CD980CF320FA02F018BF40F001004FEAC1234FEAD32303FA0CFC40EA0C0023FA02F34FEA4303CCE77FEA26
S32D0000CDC0625307D150EA01331EBF4FF0FE4040F44000704701F0004040F0FE4040F40000704700BF80F00040CC
S32D0000CDE802E000BF81F0004142001FBF5FEA410392EA030F7FEA226C7FEA236C6AD04FEA1262D2EB1363C1BF06
S32D0000CE10D218414048404140B8BF5B42192B88BF704710F0004F40F4000020F07F4018BF404211F0004F41F4FA
S32D0000CE38000121F07F4118BF494292EA030F3FD0A2F1010241FA03FC10EB0C00C3F1200301FA03F100F000432B
S32D0000CE6002D5494260EB4000B0F5000F13D3B0F1807F06D340084FEA310102F10102FE2A51D2B1F1004F40EB94
S32D0000CE88C25008BF20F0010040EA03007047490040EB000010F4000FA2F10102EDD1B0FA80FCACF1080CB2EB5F
S32D0000CEB00C0200FA0CF0AABF00EBC25052421843BCBFD0401843704792F0000F81F4000106BF80F400000132EB
S32D0000CED8013BB5E74FEA41037FEA226C18BF7FEA236C21D092EA030F04D092F0000F08BF0846704790EA010FD7
S32D0000CF001CBF0020704712F07F4F04D1400028BF40F00040704712F100723CBF00F50000704700F0004343F0DC
S32D0000CF28FE4040F4000070477FEA226216BF08467FEA23630146420206BF5FEA412390EA010F40F480007047C1
S32D0000CF504FF0000304E000BF10F0004348BF40425FEA000C08BF704743F0964301464FF000001CE050EA010264
S32D0000CF7808BF70474FF000030AE000BF50EA010208BF704711F0004302D5404261EB41015FEA010C02BF84465B
S32D0000CFA00146002043F0B64308BFA3F18053A3F50003BCFA8CF2083AA3EBC25310DB01FA02FC634400FA02FC6B
S32D0000CFC8C2F12002BCF1004F20FA02F243EB020008BF20F00100704702F1200201FA02FCC2F1200250EA4C0034
S32D0000CFF021FA02F243EB020008BF20EADC7070474FF0FF0C1CEAD0521EBF1CEAD15392EA0C0F93EA0C0F6FD019
S32D0000D0181A4480EA010C400218BF5FEA41211ED04FF0006343EA501043EA5111A0FB01310CF00040B1F5000FE7
S32D0000D0403EBF490041EAD3715B0040EA010062F17F02FD2A1DD8B3F1004F40EBC25008BF20F00100704790F058
S32D0000D068000F0CF0004C08BF49024CEA502040EA51207F3AC2BFD2F1FF0340EAC250704740F400004FF0000388
S32D0000D090013A5DDC12F1190FDCBF00F000407047C2F10002410021FA02F1C2F1200200FA02FC5FEA310040F1D5
S32D0000D0B8000053EA4C0308BF20EADC70704792F0000F00F0004C02BF400010F4000F013AF9D040EA0C0093F04C
S32D0000D0E0000F01F0004C02BF490011F4000F013BF9D041EA0C018FE70CEAD15392EA0C0F18BF93EA0C0F0AD00B
S32D0000D10830F0004C18BF31F0004CD8D180EA010000F00040704790F0000F17BF90F0004F084691F0000F91F0BB
S32D0000D130004F14D092EA0C0F01D142020FD193EA0C0F03D14B0218BF084608D180EA010000F0004040F0FE4051
S32D0000D15840F40000704740F0FE4040F4400070474FF0FF0C1CEAD0521EBF1CEAD15392EA0C0F93EA0C0F69D044
S32D0000D180A2EB030280EA010C49024FEA402037D04FF0805343EA111143EA10130CF000408B4238BF5B0042F14E
S32D0000D1A87D024FF4000C8B4224BF5B1A40EA0C00B3EB510F24BFA3EB510340EA5C00B3EB910F24BFA3EB9103A4
S32D0000D1D040EA9C00B3EBD10F24BFA3EBD10340EADC001B0118BF5FEA1C1CE0D1FD2A3FF650AF8B4240EBC25018
S32D0000D1F808BF20F0010070470CF0004C4CEA50207F32C2BFD2F1FF0340EAC250704740F400004FF00003013AF1
S32D0000D22037E792F0000F00F0004C02BF400010F4000F013AF9D040EA0C0093F0000F01F0004C02BF490011F4C9
S32D0000D248000F013BF9D041EA0C0195E70CEAD15392EA0C0F08D142027FF47DAF93EA0C0F7FF470AF084676E7AE
S32D0000D27093EA0C0F04D14B023FF44CAF08466EE730F0004C18BF31F0004CCAD130F000427FF45CAF31F0004376
S32D0000D2987FF43CAF5FE700BF4FF0FF3C06E000BF4FF0010C02E000BF4FF0010C4DF804CD4FEA40024FEA41039F
S32D0000D2C07FEA226C18BF7FEA236C11D001B052EA530C18BF90EA010F58BFB2EB030088BFC81738BF6FEAE1706E
S32D0000D2E818BF40F0010070477FEA226C02D15FEA402C05D17FEA236CE4D15FEA412CE1D05DF8040B704700BF16
S32D0000D310844608466146FFE70FB5FFF7C9FF002848BF10F1000F0FBD4DF808EDFFF7F4FF0CBF012000205DF839
S32D0000D33808FB00BF4DF808EDFFF7EAFF34BF012000205DF808FB00BF4DF808EDFFF7E0FF94BF012000205DF8A9
S32D0000D36008FB00BF4DF808EDFFF7D2FF94BF012000205DF808FB00BF4DF808EDFFF7C8FF34BF012000205DF8B1
S32D0000D38808FB00BF4FEA4002B2F1FE4F0FD34FF09E03B3EB12620DD94FEA002343F0004310F0004F23FA02F060
S32D0000D3B018BF404270474FF00000704712F1610F01D1420205D110F0004008BF6FF0004070474FF00000704797
S32D0000D3D8036803B11B181846704700BF03685A004CBF43F0004323F00043C018704700BF2DE9F84F0446914699
S32D0000D40041B301F1FF3BDA46002707EB0A0101EBD1756D1004EBC5063046FFF7E3FF8046681CAB4504EBC000FA
S32D0000D4280DD0FFF7DBFF0138C84504D9BD4209D005F1FF3AE5E7484505D26F1CE1E74FF0FF30F1E7002630469A
S32D0000D450BDE8F88F0E463046BDE8F88F30B52B4B83B004468D1E002B49D0284601A9AFF300800346002822D028
S32D0000D4782A4618460199FFF7BBFF054600281DD0FFF7ACFF6B68A064012B10D0281D002B22DBFFF7A3FF002164
S32D0000D4A0E06421650368002B0FDBFFF79BFF2061002003B030BD002323610520F9E720610920F6E72061092066
S32D0000D4C8F3E7C3F3036058B101280CD002280ED0002020610920E8E70122E0642265DDE7094B2361E1E7094AEF
S32D0000D4F000202261DDE7084900202161D9E7074B0749C81AC2100192B6E700BF0000000029DA000025DA0000AD
S32D0000D51821DA0000A0E2010098E40100036810B50446D80706D4990704F1480009D500F00DFD23685A0709D538
S32D0000D54018070ED5D90613D510BD00F0FBFC23685A07F5D404F1D00000F004FD23681807F0D404F5D87000F036
S32D0000D56805FD2368D906EBD404F50C70BDE8104000F040BD2DE9F0470F1D054691460FCFADF5916D02AC261D09
S32D0000D5900FC60FCF0FC60FCF0FC697E80F00D5F80C80D5F818A0002786E80F00216C27602846FFF753FF06460C
S32D0000D5B8B94514BF4FF00A094FF00909FEB1A16B49F01009616401208DE8100449462A462B46C04700282BD1BA
S32D0000D5E0002E2AD1204692A94FF410720DF0A2FB082F28D1216C2846FFF730FF06464FF00909002EDFD1206C9D
S32D0000D60821464FF41072686192A80DF08FFB2F69294692AA4846B847A09B0746636401208DE8100449462A4676
S32D0000D6302B46C0470028D3D00926304622B00DF5806DBDE8F087072FF6D1201D00F06EFC38B504460D46296C54
S32D0000D6582046FFF7FFFE50B92A6C23696261012021462A4698470828F1D0072801D00FF0B7FC281D00F056FC5C
S32D0000D68011B933B10220704704298CBF0220012070470F2A01D90220704700EB820118464A68009B1A6070474D
S32D0000D6A810B50A4684B000210B4603AC0094FFF7E3FF039804B010BD11B933B10220704704298CBF0220012020
S32D0000D6D070470F2A01D902207047009900EB8202096818465160704710B584B004AB0C4643F8042D0021009330
S32D0000D6F822460B46FFF7E0FF04B010BD2DE9F04FCD6C8BB00C4655F8041B174600F008021E46039200F0030823
S32D0000D7200795002B40F0CF8009020691216D8DF821300323B8F1020F8DF8203008BFA56B11F0010340F0D3807B
S32D0000D748019304F158030293D5F80090B9F1000F00F0CB80022E00F0AE80B5F80090B5F802A00435A26C0F2198
S32D0000D7702AF0010B38469344FFF796FF834518D829F0010CE3440AF0010A09F00103584543EA4A092CBF002056
S32D0000D7980120B9F1010F12D032D2B8F1000F02D0002840F01D810435CEE70AF0010A09F0010343EA4A09002092
S32D0000D7C0B9F1010FECD1B8F1000F40F0B680C8B16B68D5F800909A1C19D0029A013309920DD0281DFFF7F8FDE6
S32D0000D7E84FEAD972014609AB20460EF063FC002800F0F280099A002A40F0BA800835A3E7B9F1020F03D0092092
S32D0000D8100BB0BDE8F08F2B6823F000420092B8F1000F71D1002843D00398002840F0A1800098002800F0A08078
S32D0000D838009BDDF80C90DB0705F1040A40F1B480CDF810800596A846029E12E000998D4200F0D9800996FFF7B5
S32D0000D860BBFD5A46014609AB20460EF027FCA946B0B90AF1040A05F1010950460996FFF7ABFD09AB014600226F
S32D0000D88820460EF017FC0AF1040A834609F101055046BBF1000FD9D04546059EDDF81080009A4A4564D02B68AC
S32D0000D8B0002B7BDB0099481C05EB800548E7D5F804A0083552E70B04C1F30740216D06930222B8F1020F05EB42
S32D0000D8D8800508BFA56B8DF8210011F001038DF820203FF42DAF00200190384606A900F019FC002887D1019A49
S32D0000D900002A43D1082083E70D213846D4F82090FFF7CAFE8145CAD1A26A9542C7D10098291D00220423A0623E
S32D0000D928E26223636163286800286EDB01220192BCE70D213846D4F82090FFF7B1FE81457FF45CAFA16A8D42FE
S32D0000D9507FF458AF2846FFF745FD0F2102463846FFF7C2FE384600212246FFF7BDFE07204EE7009900299BD19B
S32D0000D97838460D21FFF794FE099B20626362A562062041E70F213846FFF78AFE0E2102463846FFF7A5FE3846D5
S32D0000D9A00F211E4AFFF7A0FE072031E7043581E7029950460991FFF70FFD039A014609AB20460EF07BFB0028E6
S32D0000D9C87FF46EAFCDF8108005960AF1040A4FF00109A846029E4CE7CDF824800835B3E62846FFF7FBFC0435CB
S32D0000D9F00646A56320460EF0D7FB00283FF407AF38460F213246FFF76FFE072000E74546B2E7009B591C05EBB3
S32D0000DA1881009CE711C3010002236FE601236DE600236BE62DE9F0470446E8B004290CD8DFE801F0380391934B
S32D0000DA400F00150C012B96B200F07881052B00F0C780022068B0BDE8F087002BF9D1102AF7D82368D90600F115
S32D0000DA68738164A8019200F0CFFA019AA36BD00744BF53F8040B6490910744BF53F8041B6591500744BF53F8D3
S32D0000DA90041B6691110748BF53F8042B64A8A36348BF679200F0AAFA0020D3E7002BD0D1A36BD00791B244BF42
S32D0000DAB853F8042B62608A0744BF53F8042BA260480744BF53F8042BE2600A0744BF53F8042B2261C80644BF04
S32D0000DAE053F8042B62618A0644BF53F8042BA261480644BF53F8042BE2610A0644BF53F8042B2262C80544BFDC
S32D0000DB0853F8042B62628A0544BF53F8042BA262480544BF53F8042BE2620A0544BF53F8042B2263C80444BFB3
S32D0000DB3053F8042B626311F400501CBF53F8042BA2634A0444BF53F8042BE2630A0444BF53F8042B2264002890
S32D0000DB5840D1A3637AE7012078E7032B7FF475AF160C95B2AA19102A3FF66FAF2368180700F10B8144A800F026
S32D0000DB801BFAA76B4FEA450E3B460DB344A90EF1FF3C01EBC60653F8040B62460CF0010146F8040B92B129B13A
S32D0000DBA853F8041B013A46F8041B0BD01846314650F8045B41F8045B5D68031D75600E1D023AF3D107EB8E03F6
S32D0000DBD044A8A36300F0CEF900203BE7002039E777192022BA42FFF434AF012B00F0A9800F2D40F2A9803746FF
S32D0000DBF8F6B1052B7FF429AF0F2D11D82268D0070ED522F00101052B2160204600F0DA8022F0030240F8482B3D
S32D0000DC20019300F093F9019B1FB12268510700F1B880012B00F0BF800F2D75D9002F40F0A080D4F83890002E29
S32D0000DC48C8462EDD49460DF1080A4FEA46080AEBC50251F8046B08F1FF3000F0010A42F8046BA8F1020CD0B107
S32D0000DC70BAF1000F08D051F8040B0CF1FF3CBCF1FF3F42F8040B0ED00E46104656F804AB40F804AB4968ACF176
S32D0000DC98020C5160311D021DBCF1FF3FF0D109EB8808A7B3102D2CBF2E4610260DF5D079414609EBC60CACF59D
S32D0000DCC0C8724FEA470951F8046B09F1FF3000F0010A42F8046BA9F1020CD0B1BAF1000F08D051F8040B0CF1DE
S32D0000DCE8FF3CBCF1FF3F42F8040B0ED00E46104656F804AB40F804AB4968ACF1020C5160311D021DBCF1FF3FCE
S32D0000DD10F0D108EB8908012B2BD00F2DC4F8388008D9FFB9384695E602A8019300F016F9019B83E702A800F05A
S32D0000DD380DF9F2E77719102250E70F2D3FF685AE102F10D9103F54E723F01003236004F50C70019200F058F99D
S32D0000DD60019A82E624A800F0FDF8002072E6002746E708F1040302A8A36300F0E3F8002068E624A80193C5F116
S32D0000DD88100600F0EFF8019B57E723F0080704F5D870276000F00CF9ECE6204622F0040140F8D01B019300F0D1
S32D0000DDB0DDF8019B3DE702A8019300F0C7F8019B002F3FF43EAFC5F110063AE741F0020140F8481B019300F098
S32D0000DDD8C1F8019B24E700BF406C7047F0B50D460F1DC96B296404460FCFADF5117D01AE0FC60FCF0FC60FCF49
S32D0000DE000FC697E80F0086E80F004FF0FF33009310992046FFF722FB58B9266921466A46B04708280646F3D001
S32D0000DE286846FFF77BFB062E03D009200DF5117DF0BD20462946FFF707FC00BF10B4DC6BC16082611946002228
S32D0000DE501C6410BCFFF792BB38B54269C3680A6404460D4623B10122FFF788FB0FF0BCF80369214602202A46BF
S32D0000DE789847072803D0082804D00FF0B1F8281D00F050F820462946FFF7DEFBC36823B1CA6B0A640022FFF714
S32D0000DEA06DBB9FE7704700BF08B5836801460BB10120984708BD00BFF0B5D46B171D146405460C460FCFADF554
S32D0000DEC8277D01AE0FC60FCF0FC60FCF0FC697E80F0086E80F004FF0FF330093109990A8FFF7B8FA034690AA83
S32D0000DEF068460C21BBB9FFF7F7FB21466846A847064690A908206A466EB9949B98470528064601D00928E5D106
S32D0000DF186846FFF703FB30460DF5277DF0BD0926F6E700BF00F1340191E838009C46A6464CF8045D90E8FF0FD5
S32D0000DF40E54600BD90EC210B704700BF80EC210B704700BF90EC200B704700BF80EC200B704700BFD0EC200B8E
S32D0000DF68704700BFC0EC200B704700BFF0EC0201F0EC0211F0EC0221F0EC0231F0EC0241F0EC0251F0EC02615F
S32D0000DF90F0EC0271F0EC0281F0EC0291F0EC02A1F0EC02B1F0EC02C1F0EC02D1F0EC02E1F0EC02F1704700BFE6
S32D0000DFB8E0EC0201E0EC0211E0EC0221E0EC0231E0EC0241E0EC0251E0EC0261E0EC0271E0EC0281E0EC029155
S32D0000DFE0E0EC02A1E0EC02B1E0EC02C1E0EC02D1E0EC02E1E0EC02F1704700BFB0FC0181B0FC0191B0FC01A159
S32D0000E008B0FC01B1704700BFA0FC0181A0FC0191A0FC01A1A0FC01B1704700BFEC4600B52DE900502DE9FF1F47
S32D0000E0304FF000032DE90C0001A9FFF7D3FEDDF840E012B0704700BFEC4600B52DE900502DE9FF1F4FF00003FD
S32D0000E0582DE90C0001A9FFF7FBFEDDF840E012B0704700BFEC4600B52DE900502DE9FF1F4FF000032DE90C00CD
S32D0000E08001A9FFF707FFDDF840E012B0704700BFEC4600B52DE900502DE9FF1F4FF000032DE90C0001ABFFF718
S32D0000E0A8CDFEDDF840E012B0704700BFEC4600B52DE900502DE9FF1F4FF000032DE90C0001AAFFF7F5FEDDF804
S32D0000E0D040E012B0704700BF027A03461AB9427A42B9B02070470068013A01021A72000E196070474168501E6D
S32D0000E0F8587251F8040B0322596001021A72000E1960704710B5002184B00C220DEB02040B460094FFF7B0FA62
S32D0000E120039804B010BD00BFF0E700BF2DE9F043064685B00D464FF000094FF47F672846FFF7CAFFB028044683
S32D0000E14800F0B08010F0800120D000F0F003802B74D0902B37D0A02B45D0B02B56D0C02B00F0858000F0F800DB
S32D0000E170D0280BD104F00702511C41F40022304601210523FFF752FC0028D8D0092005B0BDE8F0834FEA800267
S32D0000E19803A85FFA82F800900D220B463046FFF76BFA039B600608F104084CBFC8EB0303434403AC03930094CD
S32D0000E1C0002130460D220B46FFF77AFAB7E700F00F020D2ADAD00F2AD8D0002103AC009430460B4603ACFFF77F
S32D0000E1E84BFA0094E8E7C24302F0070C47FA0CF0210700F47F6248BF42F48042002130460B46FFF70FFC00280D
S32D0000E210BCD194E7B1285DD0B2286ED0B32800F0958000F0FC02B42A46D000F00702531C43F40022012130469F
S32D0000E2380B46FFF7F7FB0028A4D17CE72846FFF747FF210240EA0104B4F5004F9AD0230500211A0C30460B46EB
S32D0000E2602401FFF7E3FB002890D114F4004F18BF4FF0010963E7C62873D0C72800F0848000F0F802C02A00F075
S32D0000E2889280C82800F0A680C9287FF47BAF2846FFF71EFF00F00F0300F0F0015A1C42EA013268E7B9F1000F81
S32D0000E2B000F0838000206AE700F00301481C022140F480220B463046FFF7B0FB00287FF45DAF34E72846FFF7FD
S32D0000E2D8FFFE024600283FF455AF10F0F0017FF451AF30460B46FFF79DFB00287FF44AAF21E700210D220B467E
S32D0000E30003AC30460094FFF7BBF92846FFF7E4FE022402060DD5039B00F07F0000FA04FE03EB0E01284603912E
S32D0000E328FFF7D6FE07340306F1D4039B00F07F0103AA03F5017C01FA04F400920CEB0402039239E72846FFF729
S32D0000E350C3FE00F00F03591C00F0F00041EA003268E72846FFF7B8FE00F00F03591C00F0F00041EA00320321E9
S32D0000E37830460B46FFF756FB00287FF403AFDAE62846FFF7A5FE024600283FF4FBAE10F0F0037FF4F7AE304688
S32D0000E3A00421FFF743FB00287FF4F0AEC7E600F00F01481C40F42022DDE703AC49460E224B4630460094FFF773
S32D0000E3C85BF9304649460F224B460094FFF774F94846D8E62846FFF77BFE00F0F00200F00F001032431C43EA3D
S32D0000E3F00232C4E610B5C26C84B0032054688DF80C00D37924020832084601A9019402928DF80D30FFF78AFE7D
S32D0000E41804B010BD08B5FFF783FE806C08BD00BF08B5FFF77DFEC16CC87901EB800303F1080008BD08B50EF02A
S32D0000E440D3FD00BF08B50EF0CFFD00BF80B584B000AF43F24870C1F6FF704FF0000142F67922C0F2010202F0F4
S32D0000E46897FC43F28070C1F6FF704DF2A811C0F201014FF0000203F0B3FA43F24870C1F6FF704FF0010142F68F
S32D0000E4902D32C0F2010202F07FFC43F28070C1F6FF704DF2BC11C0F201014FF0010203F09BFA43F24870C1F664
S32D0000E4B8FF704FF0020142F6DD32C0F2010202F067FC43F28070C1F6FF704DF2CC11C0F201014FF0020203F0E3
S32D0000E4E083FA43F24870C1F6FF704FF0030142F68D42C0F2010202F04FFC43F28070C1F6FF704DF2DC11C0F219
S32D0000E50801014FF0030203F06BFA43F24870C1F6FF704FF0040142F64152C0F2010202F04FFC43F28C70C1F64B
S32D0000E530FF704DF2F011C0F201014FF0040203F053FA43F24870C1F6FF704FF0050142F65972C0F2010202F0D3
S32D0000E55837FC43F28C70C1F6FF704DF20021C0F201014FF0050203F03BFA43F24870C1F6FF704FF0060143F2FB
S32D0000E5806112C0F2010202F01FFC43F28C70C1F6FF704DF20C21C0F201014FF0060203F023FA43F24870C1F6C6
S32D0000E5A8FF704FF0070143F28932C0F2010202F007FC43F28C70C1F6FF704DF21C21C0F201014FF0070203F033
S32D0000E5D00BFA43F24870C1F6FF704FF00C0143F2A152C0F2010202F0EFFB43F29870C1F6FF704DF22C21C0F25F
S32D0000E5F801014FF00C0203F0F3F943F24870C1F6FF704FF0090143F2C952C0F2010202F0D7FB43F29870C1F6AE
S32D0000E620FF704DF24421C0F201014FF0090203F0DBF943F24870C1F6FF704FF00A0143F28972C0F2010202F0C0
S32D0000E648BFFB43F29870C1F6FF704DF25821C0F201014FF00A0203F0C3F943F24870C1F6FF704FF0100143F685
S32D0000E6704912C0F2010202F0A7FB43F29870C1F6FF704DF26C21C0F201014FF0100203F0ABF943F24870C1F669
S32D0000E698FF704FF0110143F60932C0F2010202F08FFB43F29870C1F6FF704DF28421C0F201014FF0110203F0AF
S32D0000E6C093F943F24870C1F6FF704FF0140143F6C942C0F2010202F08FFB43F29870C1F6FF704DF29C21C0F2B3
S32D0000E6E801014FF0140203F07BF943F24870C1F6FF704FF0150143F61962C0F2010202F05FFB43F29870C1F635
S32D0000E710FF704DF2B021C0F201014FF0150203F063F943F24870C1F6FF704FF0160144F22D02C0F2010202F08E
S32D0000E73847FB43F29870C1F6FF704DF2C421C0F201014FF0160203F04BF943F24870C1F6FF704FF0170144F208
S32D0000E7604122C0F2010202F02FFB43F29870C1F6FF704DF2DC21C0F201014FF0170203F033F943F24870C1F6E9
S32D0000E788FF704FF0180144F27942C0F2010202F017FB43F29870C1F6FF704DF2F021C0F201014FF0180203F03F
S32D0000E7B01BF943F24870C1F6FF704FF0080144F2B962C0F2010202F0CFFA43F2A470C1F6FF704DF20431C0F276
S32D0000E7D801014FF0080203F003F943F24870C1F6FF704FF00D0144F24972C0F2010202F0FFFA43F2A470C1F6E8
S32D0000E800FF704DF21831C0F201014FF00D0203F0EBF843F24870C1F6FF704FF00E0144F65102C0F2010202F086
S32D0000E828CFFA43F2A470C1F6FF704DF23031C0F201014FF00E0203F0D3F843F24870C1F6FF704FF0130144F689
S32D0000E850F112C0F2010202F0B7FA43F2A470C1F6FF704DF24831C0F201014FF0130203F0BBF843F24870C1F6C6
S32D0000E878FF704FF01A0144F65922C0F2010202F0B7FA43F2A470C1F6FF704DF26031C0F201014FF01A0203F05B
S32D0000E8A0A3F843F24870C1F6FF704FF01B0144F6D122C0F2010202F087FA43F2A470C1F6FF704DF27031C0F2EB
S32D0000E8C801014FF01B0203F08BF843F24870C1F6FF704FF0320144F6A132C0F2010202F06FFA43F2B070C1F6A0
S32D0000E8F0FF704DF27831C0F201014FF0320203F073F843F24870C1F6FF704FF0330144F63542C0F2010202F040
S32D0000E91857FA43F2B070C1F6FF704DF28C31C0F201014FF0330203F05BF843F24870C1F6FF704FF03C0144F6D2
S32D0000E940C942C0F2010202F057FA43F2BC70C1F6FF704DF2A031C0F201014FF03C0203F043F843F24870C1F60C
S32D0000E968FF704FF03D0144F65152C0F2010202F03FFA43F2BC70C1F6FF704DF2B031C0F201014FF03D0203F00C
S32D0000E9902BF843F24870C1F6FF704FF03E0144F6C952C0F2010202F00FFA43F2BC70C1F6FF704DF2C031C0F237
S32D0000E9B801014FF03E0203F013F843F24870C1F6FF704FF03F0144F6E552C0F2010202F0F7F943F2BC70C1F600
S32D0000E9E0FF704DF2D031C0F201014FF03F0202F0FBFF43F24870C1F6FF704FF0400144F60162C0F2010202F063
S32D0000EA08DFF943F2BC70C1F6FF704DF2E431C0F201014FF0400202F0E3FF43F24870C1F6FF704FF0500144F647
S32D0000EA30C962C0F2010202F0C7F943F2BC70C1F6FF704DF2FC31C0F201014FF0500202F0CBFF43F24870C1F68E
S32D0000EA58FF704FF0510144F62972C0F2010202F0AFF943F2BC70C1F6FF704DF20C41C0F201014FF0510202F021
S32D0000EA80B3FF43F24870C1F6FF7040F22D1140F6D522C0F2010202F067F943F24870C1F6FF704FF4977140F66B
S32D0000EAA81932C0F2010202F073F943F24870C1F6FF7040F22F1140F65D32C0F2010202F07FF943F24870C1F6D5
S32D0000EAD0FF704FF4987140F6A532C0F2010202F08BF94FF00003FB6028E043F23C73C1F6FF731968FA68134637
S32D0000EAF84FEAC3039B1A4FEAC303CB1818464FF00001604A02F018FA43F23C73C1F6FF731968FA6813464FEA8C
S32D0000EB20C3039B1A4FEAC303CB1818464FF0000102F090FAFB6803F10103FB60FB688F2BCCBF00230123DBB21E
S32D0000EB48002BCED14FF000037B6043F23C70C1F6FF704FF000014C4A02F058FB43F23C70C1F6FF704FF001014E
S32D0000EB70474A02F04FFB43F23C70C1F6FF704FF00201434A02F046FB43F23C70C1F6FF704FF000013F4A02F0DF
S32D0000EB983DFB43F23C70C1F6FF704FF000013A4A02F034FB43F23C70C1F6FF704FF00101354A02F02BFB43F217
S32D0000EBC03C70C1F6FF704FF00201314A02F022FB43F23C70C1F6FF704FF000012D4A02F019FB43F23C70C1F62D
S32D0000EBE8FF7040F22D114FF0050202F0E9FA43F23C70C1F6FF704FF49771254A02F006FB43F23C70C1F6FF704A
S32D0000EC1040F22F114FF000024FF0804303F5E01302F01EFB43F23C70C1F6FF704FF4987102F03EFB03F002FBBD
S32D0000EC3803F068FB03F0E2FB4FF00003BB6015E043F25C73C1F6FF731968BA6813464FEA83039B184FEA03134C
S32D0000EC60CB1818464FF0010102F01CFCBB6803F10103BB60BB680B2BCCBF00230123DBB2002BE1D100F00AF83D
S32D0000EC88FCE700BF000000000000803F000040400000C040B0B59AB000AF43F25070C1F6FF7003F00DF90246C3
S32D0000ECB040F23443C1F6FF731A604DF24843C0F2010307F1340493E8070084E8070040F23443C1F6FF731B68F0
S32D0000ECD8002B00F0D58440F23443C1F6FF731B68012B03D101F004FD00F0CABC40F23443C1F6FF731B68022B5B
S32D0000ED0040F0F18143F25C70C1F6FF7003F0DCF8024640F23843C1F6FF731A6003F0BCFB43F2C870C1F6FF7080
S32D0000ED2803F0CEF8024640F24843C1F6FF731A6040F23843C1F6FF731A6813464FEA43039B184FEA83031A465A
S32D0000ED5040F24843C1F6FF731B68D21840F24843C1F6FF731A6003F02BFC43F27470C1F6FF7003F0A9F80246AD
S32D0000ED7840F24043C1F6FF731A6040F24043C1F6FF731B68002B76D040F24043C1F6FF731B68012B0CD143F2A4
S32D0000EDA08070C1F6FF7003F08FF8024640F24443C1F6FF731A6062E040F24043C1F6FF731B68022B0CD143F22F
S32D0000EDC88C70C1F6FF7003F07BF8024640F24443C1F6FF731A604EE040F24043C1F6FF731B68032B0CD143F222
S32D0000EDF09870C1F6FF7003F067F8024640F24443C1F6FF731A603AE040F24043C1F6FF731B68042B0CD143F215
S32D0000EE18A470C1F6FF7003F053F8024640F24443C1F6FF731A6026E040F24043C1F6FF731B68052B0CD143F207
S32D0000EE40B070C1F6FF7003F03FF8024640F24443C1F6FF731A6012E040F24043C1F6FF731B68062B0BD143F2FB
S32D0000EE68BC70C1F6FF7003F02BF8024640F24443C1F6FF731A6043F61400C1F6FF704FF0000109F0A9F843F6EA
S32D0000EE901400C1F6FF704FF0010109F0FFF843F24873C1F6FF73196840F24443C1F6FF731B681A4613464FEAF8
S32D0000EEB883039B184FEA8303CB18184601F0DCFE034687F85B3097F85B30012B47D143F23C73C1F6FF731968E9
S32D0000EEE040F24843C1F6FF731B681A4613464FEAC3039B1A4FEAC303CB18184601F0C8FF03467B654DF2544337
S32D0000EF08C0F2010307F1280493E8070084E8070007F12803786D19464FF0030203F00EFD03467B6543F23C7356
S32D0000EF30C1F6FF73196840F24843C1F6FF731B681A4613464FEAC3039B1A4FEAC303CA1840F24443C1F6FF7370
S32D0000EF581B68104619467A6D01F0D4FF90E397F85B30022B47D143F23C73C1F6FF73196840F24443C1F6FF7366
S32D0000EF801B681A4613464FEAC3039B1A4FEAC303CB18184601F088FF03463B654DF26043C0F2010307F11C0422
S32D0000EFA893E8070084E8070007F11C03386D19464FF0030203F048FC03463B6543F23C73C1F6FF73196840F207
S32D0000EFD04843C1F6FF731B681A4613464FEAC3039B1A4FEAC303CA1840F24443C1F6FF731B68104619463A6DCD
S32D0000EFF801F0A2FF44E397F85B30032B4ED143F23C73C1F6FF73196840F24843C1F6FF731B681A4613464FEAE2
S32D0000F020C3039B1A4FEAC303CB18184601F048FF02460B46C7E912234DF27043C0F201033C461D460FCD0FC415
S32D0000F04895E8030084E803003B46D7E912011A464FF0030303F0E4FA02460B46C7E9122343F23C73C1F6FF7356
S32D0000F070196840F24843C1F6FF731B681A4613464FEAC3039B1A4FEAC303CA1840F24443C1F6FF731B6810467F
S32D0000F0981946D7E9122301F069FFF1E297F85B30042B40F0ED8243F23C73C1F6FF73196840F24843C1F6FF736E
S32D0000F0C01B681A4613464FEAC3039B1A4FEAC303CA1840F24443C1F6FF731B681046194601F064FFD0E240F2FF
S32D0000F0E83443C1F6FF731B68032B31D143F25C70C1F6FF7002F0E4FE024640F23843C1F6FF731A6003F0C4F964
S32D0000F11043F2C870C1F6FF7002F0D6FE024640F24843C1F6FF731A6040F23843C1F6FF731A6813464FEA4303A0
S32D0000F1389B184FEA83031A4640F24843C1F6FF731B68D21840F24843C1F6FF731A6097E240F23443C1F6FF73D9
S32D0000F1601B68042B40F0FD8043F61400C1F6FF704DF22041C0F2010109F0C6F807F134034FF0000019464FF098
S32D0000F188030203F0DBFB03467B644FF08E037B66B0E043F23C73C1F6FF7319687A6E13464FEAC3039B1A4FEA66
S32D0000F1B0C303CB18184601F09DFE034687F8433043F23C73C1F6FF7319687A6E13464FEAC3039B1A4FEAC303E1
S32D0000F1D8CB18184601F07EFE0346032B14BF00230123DBB2002B36D043F23C73C1F6FF7319687B6E03F101029E
S32D0000F20013464FEAC3039B1A4FEAC303CD1843F23C73C1F6FF7319687A6E13464FEAC3039B1A4FEAC303CB188A
S32D0000F228184601F025FE044643F23C73C1F6FF7319687A6E13464FEAC3039B1A4FEAC303CB18184601F038FE12
S32D0000F25002460B462846214601F08CFE35E043F23C73C1F6FF7319687B6E03F1010213464FEAC3039B1A4FEADE
S32D0000F278C303CD1843F23C73C1F6FF7319687A6E13464FEAC3039B1A4FEAC303CB18184601F0EEFD044643F29F
S32D0000F2A03C73C1F6FF7319687A6E13464FEAC3039B1A4FEAC303CB18184601F0E9FD0346284621461A4601F06C
S32D0000F2C821FE43F23C73C1F6FF7319687B6E03F1010213464FEAC3039B1A4FEAC303CA1897F8433010461946E6
S32D0000F2F001F0B0FE7B6E03F1FF337B667A6E7B6C9A42B4BF00230123DBB2002B7FF445AF43F23C73C1F6FF73D0
S32D0000F31819687A6C13464FEAC3039B1A4FEAC303CB1818464FF000014FF000024FF0000301F01CFE43F23C7361
S32D0000F340C1F6FF7319687A6C13464FEAC3039B1A4FEAC303CB1818464FF0000101F07AFE92E140F23443C1F646
S32D0000F368FF731B68052B48D143F25C70C1F6FF7002F0A6FD024640F23843C1F6FF731A6003F086F843F2C87007
S32D0000F390C1F6FF7002F098FD024640F24843C1F6FF731A6040F23843C1F6FF731A6813464FEA43039B184FEADE
S32D0000F3B883031A4640F24843C1F6FF731B68D21840F24843C1F6FF731A6043F23C73C1F6FF73196840F2484343
S32D0000F3E0C1F6FF731B681A4613464FEAC3039B1A4FEAC303CB1818464FF0010101F02AFE42E140F23443C1F6C9
S32D0000F408FF731B68062B48D143F25C70C1F6FF7002F056FD024640F23843C1F6FF731A6003F036F843F2C87005
S32D0000F430C1F6FF7002F048FD024640F24843C1F6FF731A6040F23843C1F6FF731A6813464FEA43039B184FEA8D
S32D0000F45883031A4640F24843C1F6FF731B68D21840F24843C1F6FF731A6043F23C73C1F6FF73196840F24843A2
S32D0000F480C1F6FF731B681A4613464FEAC3039B1A4FEAC303CB1818464FF0000101F0DAFDF2E040F23443C1F6CB
S32D0000F4A8FF731B68072B6DD143F61400C1F6FF704FF0000108F090FD43F61400C1F6FF704FF0010108F0E6FD0A
S32D0000F4D043F61400C1F6FF704DF23C41C0F2010108F012FF43F25C70C1F6FF7002F0ECFC024640F23843C1F675
S32D0000F4F8FF731A604FF000033B6623E043F23C73C1F6FF73196840F23843C1F6FF731A6813464FEA43039B18A3
S32D0000F5204FEA83031A463B6ED3181A4613464FEAC3039B1A4FEAC303CB1818464FF0010101F088FD3B6E03F109
S32D0000F54801033B663B6E0B2BCCBF00230123DBB2002BD3D143F25C73C1F6FF73196840F23843C1F6FF731B68DC
S32D0000F5701A4613464FEA83039B184FEA0313CB1818464FF0010101F08DFF7DE040F23443C1F6FF731B68082B0F
S32D0000F5986DD143F61400C1F6FF704FF0000108F01BFD43F61400C1F6FF704FF0010108F071FD43F61400C1F626
S32D0000F5C0FF704DF23C41C0F2010108F09DFE43F25C70C1F6FF7002F077FC024640F23843C1F6FF731A604FF048
S32D0000F5E80003FB6523E043F23C73C1F6FF73196840F23843C1F6FF731A6813464FEA43039B184FEA83031A46FF
S32D0000F610FB6DD3181A4613464FEAC3039B1A4FEAC303CB1818464FF0000101F013FDFB6D03F10103FB65FB6D63
S32D0000F6380B2BCCBF00230123DBB2002BD3D143F25C73C1F6FF73196840F23843C1F6FF731B681A4613464FEA47
S32D0000F66083039B184FEA0313CB1818464FF0000101F018FF08E040F23443C1F6FF731B68092B01D100F004F83C
S32D0000F68807F16807BD46B0BDB0B592B000AF43F61400C1F6FF704FF0000108F09DFC43F61400C1F6FF704FF031
S32D0000F6B0010108F0F3FC43F61400C1F6FF704DF28841C0F2010108F03DFD43F2E860C1F6FF700AF0D5F903462E
S32D0000F6D843F61400C1F6FF70194608F039FE43F26870C1F6FF704DF29441C0F2010102F055F843F26870C1F605
S32D0000F700FF704DF2A841C0F2010102F04BF843F26870C1F6FF704DF2BC41C0F2010102F041F843F26873C1F646
S32D0000F728FF731B6803F1A00240F22443C1F6FF731B781046194601F0B1FE43F26870C1F6FF704DF2D041C0F249
S32D0000F750010102F027F843F26873C1F6FF731B6803F1F00240F22543C1F6FF731B781046194601F097FE43F210
S32D0000F7786870C1F6FF704DF2E041C0F2010102F00DF843F26873C1F6FF731B6803F5A07240F22643C1F6FF73D0
S32D0000F7A01B781046194601F07DFE43F26870C1F6FF704DF2F041C0F2010101F0F3FF43F26873C1F6FF731B6891
S32D0000F7C803F5C87240F22743C1F6FF731B781046194601F063FE43F26870C1F6FF704DF2FC41C0F2010101F02E
S32D0000F7F0D9FF43F26870C1F6FF704DF21451C0F2010101F0CFFF43F26870C1F6FF704DF22851C0F2010101F039
S32D0000F818C5FF43F26870C1F6FF704DF23C51C0F2010101F0BBFF43F26870C1F6FF7002F047FB024640F23C4340
S32D0000F840C1F6FF731A6043F61400C1F6FF704FF0000108F0C5FB43F61400C1F6FF704FF0010108F01BFC40F297
S32D0000F8683C43C1F6FF731B68002B6AD143F61400C1F6FF704FF0000108F0AEFB43F61400C1F6FF704FF00101D9
S32D0000F89008F004FC43F61400C1F6FF704DF25451C0F2010108F030FD40F20043C1F6FF731B687B644DF254434C
S32D0000F8B8C0F2010307F12C0493E8070084E8070007F12C03786C19464FF0030203F036F803467B6440F20043E3
S32D0000F8E0C1F6FF737A6C1A6043F61400C1F6FF704FF0000108F074FB43F61400C1F6FF704FF0010108F0CAFBE6
S32D0000F90843F61400C1F6FF704DF26851C0F2010108F0F6FC40F20443C1F6FF731B687B6407F12C03786C19465A
S32D0000F9304FF0030203F006F803467B6440F20443C1F6FF737A6C1A604BE240F23C43C1F6FF731B68012B73D150
S32D0000F95843F61400C1F6FF704FF0000108F03CFB43F61400C1F6FF704FF0010108F092FB43F61400C1F6FF70F3
S32D0000F9804DF27C51C0F2010108F0BEFC43F2DC60C1F6FF7007F038FD43F61400C1F6FF704DF29851C0F20101D5
S32D0000F9A808F0AEFC4FF000033B644DF2CC53C0F2010307F11C040FCB84E80F0007F11C03386C19464FF00402CE
S32D0000F9D002F0B8FF03463B6440F20843C1F6FF733A6C1A6043F61400C1F6FF704FF0000108F0F6FA43F61400CA
S32D0000F9F8C1F6FF704FF0010108F04CFB43F61400C1F6FF704DF2A451C0F2010108F078FC4FF000033B6407F19B
S32D0000FA201C03386C19464FF0040202F08BFF03463B6440F20C43C1F6FF733A6C1A60D0E140F23C43C1F6FF7398
S32D0000FA481B68022B16D140F22443C1F6FF731B78002B07D040F22443C1F6FF734FF000021A70BAE140F22443E1
S32D0000FA70C1F6FF734FF001021A70B2E140F23C43C1F6FF731B68032B16D140F22543C1F6FF731B78002B07D016
S32D0000FA9840F22543C1F6FF734FF000021A709CE140F22543C1F6FF734FF001021A7094E140F23C43C1F6FF7357
S32D0000FAC01B68042B16D140F22643C1F6FF731B78002B07D040F22643C1F6FF734FF000021A707EE140F226439D
S32D0000FAE8C1F6FF734FF001021A7076E140F23C43C1F6FF731B68052B16D140F22743C1F6FF731B78002B07D0D6
S32D0000FB1040F22743C1F6FF734FF000021A7060E140F22743C1F6FF734FF001021A7058E140F23C43C1F6FF7352
S32D0000FB381B68062B62D143F28060C1F6FF7007F0C9F90346002BF6D142E043F2C860C1F6FF7006F0D9FC0346D0
S32D0000FB6043F61400C1F6FF70194608F033FB43F61400C1F6FF704DF2B051C0F2010108F0E1FA43F2CC60C1F62D
S32D0000FB88FF7006F0C1FC034643F61400C1F6FF70194608F01BFB43F61400C1F6FF704DF2B051C0F2010108F0A5
S32D0000FBB0C9FA43F2D060C1F6FF7006F0A9FC034643F61400C1F6FF70194608F0C5FB88A1D1E9000106F030FA67
S32D0000FBD843F28060C1F6FF7007F07CF9034683F00103DBB2002BB0D143F28060C1F6FF7007F070F90346002B50
S32D0000FC00F6D1EEE040F23C43C1F6FF731B68072B32D143F28060C1F6FF7007F05FF90346002BF6D112E043F2C3
S32D0000FC28BC60C1F6FF7006F06FFC034643F61400C1F6FF70194608F08BFB6BA1D1E9000106F0F6F943F28060B1
S32D0000FC50C1F6FF7007F042F9034683F00103DBB2002BE0D143F28060C1F6FF7007F036F90346002BF6D1B4E0D5
S32D0000FC7840F23C43C1F6FF731B68082B74D143F28060C1F6FF7007F025F90346002BF6D143F2D460C1F6FF706F
S32D0000FCA00AF090F943F2D460C1F6FF700AF044FE42E043F2D460C1F6FF700AF017FF034643F61400C1F6FF706B
S32D0000FCC8194608F083FA43F61400C1F6FF704DF2B051C0F2010108F031FA43F2D460C1F6FF700AF0DFFE034601
S32D0000FCF043F61400C1F6FF70194608F06BFA43F61400C1F6FF704DF2B051C0F2010108F019FA43F2D460C1F625
S32D0000FD18FF700AF0D7FE034643F61400C1F6FF70194608F015FB30A1D1E9000106F080F943F28060C1F6FF7026
S32D0000FD4007F0CCF8034683F00103DBB2002BB0D143F2D460C1F6FF700AF020FE43F28060C1F6FF7007F0BAF856
S32D0000FD680346002BF6D138E040F23C43C1F6FF731B68092B31D143F61400C1F6FF704DF2B451C0F2010108F024
S32D0000FD90BBFA40F22843C1F6FF73D3E90023C7E90E234DF2E053C0F201033C461D460FCD0FC495E8030084E862
S32D0000FDB803003B46D7E90E011A464FF0030302F02FFC02460B46C7E90E2340F22843C1F6FF73D7E90E01C3E94D
S32D0000FDE0000107F14807BD46B0BD00BFAFF300809A9999999999B93F80B582B000AF786039607B68012B40F007
S32D0000FE08FC803A684FF6FF739A4240F0F68043F27860C1F6FF704FF0000105F0A7FD43F27C60C1F6FF704FF0F3
S32D0000FE30010105F09FFD43F28060C1F6FF704FF0030106F0B3FF43F28460C1F6FF704FF0000106F09BFD46F6A2
S32D0000FE58C133C0F2010343F28460C1F6FF70194643F6A002C1F6FF720BF0F2FF43F2A060C1F6FF704FF00101A9
S32D0000FE8006F084FD46F6C133C0F2010343F2A060C1F6FF70194643F6A002C1F6FF720BF0DBFF43F2BC60C1F65D
S32D0000FEA8FF704FF0070106F01DFB43F2C060C1F6FF704FF0080106F041F943F2C460C1F6FF704FF0090106F0B7
S32D0000FED039F943F2C860C1F6FF704FF0100106F005FB43F2CC60C1F6FF704FF0120106F0FDFA43F2D060C1F627
S32D0000FEF8FF704FF0140106F0F5FA43F2D460C1F6FF700AF017F843F2DC60C1F6FF704FF0000107F011F943F28F
S32D0000FF20E860C1F6FF704FF0200109F0C5FD43F2EC60C1F6FF7005F00FFA40F20043C1F6FF731A6843F22C7391
S32D0000FF48C1F6FF731A6040F20443C1F6FF731A6843F23073C1F6FF731A6043F23C70C1F6FF7001F0FFF843F225
S32D0000FF704870C1F6FF704FF4FA7100F0C5FE43F25070C1F6FF7001F0DFFB43F25C70C1F6FF7001F0D9FB43F21D
S32D0000FF986870C1F6FF7001F0D3FB43F27470C1F6FF7001F0CDFB43F28070C1F6FF7001F0C7FB43F28C70C1F6A0
S32D0000FFC0FF7001F0C1FB43F29870C1F6FF7001F0BBFB43F2A470C1F6FF7001F0B5FB43F2B070C1F6FF7001F071
S32D0000FFE8AFFB43F2BC70C1F6FF7001F0A9FB43F2C870C1F6FF7001F0A3FB07F10807BD4680BD00BF80B500AF19
S32D000100104FF001004FF6FF71FFF7EEFE80BD00BF90B583B000AF06F033F843F22073C1F6FF73D3E90023FCF7E3
S32D00010038EFF902460B46C7E9002343F22873C1F6FF731B681846FCF731FB40F22843C1F6FF73D3E90023FCF7B4
S32D000100608FFB02460B464FF001010C4610461946D7E90023FCF7F6FD0346002B02D14FF000031C46E3B2002B92
S32D0001008800F0858143F61400C1F6FF704FF0000107F0A2FF43F61400C1F6FF704FF0010107F0F8FF43F2806051
S32D000100B0C1F6FF7006F012FF0346002B0CD000F07BFA43F28060C1F6FF7006F007FF0346002BF6D1FEF7E2FDF9
S32D000100D843F2D460C1F6FF700AF004FD034643F61400C1F6FF70194608F070F843F61400C1F6FF704DF2F851F9
S32D00010100C0F2010108F01EF843F2D460C1F6FF700AF0CCFC034643F61400C1F6FF70194608F058F843F614000D
S32D00010128C1F6FF704DF2F851C0F2010108F006F843F2D460C1F6FF700AF0C4FC034643F61400C1F6FF701946EC
S32D0001015008F002F943F2C860C1F6FF7006F0D8F9034643F61400C1F6FF70194608F032F843F61400C1F6FF7093
S32D000101784DF2F851C0F2010107F0E0FF43F2CC60C1F6FF7006F0C0F9034643F61400C1F6FF70194608F01AF8EB
S32D000101A043F61400C1F6FF704DF2F851C0F2010107F0C8FF43F2D060C1F6FF7006F0A8F9034643F61400C1F654
S32D000101C8FF70194608F0C4F843F61400C1F6FF704DF2FC51C0F2010107F0B0FF43F22C73C1F6FF731B6843F674
S32D000101F01400C1F6FF70194608F09AF843F61400C1F6FF704DF20C61C0F2010107F09AFF43F23073C1F6FF7359
S32D000102181B6843F61400C1F6FF70194608F084F843F61400C1F6FF704DF21C61C0F2010107F084FF40F23043EC
S32D00010240C1F6FF731B78002B0AD143F61400C1F6FF704DF22C61C0F2010108F055F846E040F23043C1F6FF73A1
S32D000102681B78012B0AD143F61400C1F6FF704DF23861C0F2010108F043F834E040F23043C1F6FF731B78022BF9
S32D000102900AD143F61400C1F6FF704DF24061C0F2010108F031F822E040F23043C1F6FF731B78032B0AD143F697
S32D000102B81400C1F6FF704DF24861C0F2010108F01FF810E040F23043C1F6FF731B78042B09D143F61400C1F6D4
S32D000102E0FF704DF25461C0F2010108F00DF843F61400C1F6FF704DF25C61C0F2010107F021FF43F23473C1F60E
S32D00010308FF731B6843F61400C1F6FF70194608F01FF843F23473C1F6FF731B681846FCF7D7F902460B464FF06F
S32D0001033001010C46104619461DA3D3E90023FCF791FC0346002B02D14FF000031C46E3B2002B0AD043F61400A4
S32D00010358C1F6FF704DF27061C0F2010107F0D0FF09E043F61400C1F6FF704DF27461C0F2010107F0C5FF43F2B2
S32D000103802873C1F6FF731B6803F1010243F22873C1F6FF731A6043F2EC60C1F6FF7005F003F807F10C07BD46F8
S32D000103A890BD00BFAFF30080F6285C8FC2F5D03F80B500AF40F23043C1F6FF734FF000021A7040F20043C1F680
S32D000103D0FF731A6843F22C73C1F6FF731A6040F20443C1F6FF731A6843F23073C1F6FF731A6040F20443C1F6C4
S32D000103F8FF731B681846FCF7ABFD034643F27C60C1F6FF70194605F0E3FA40F20043C1F6FF731B68C3F100035F
S32D000104201846FCF799FD034643F27860C1F6FF70194605F0D1FA80BD80B500AF40F23043C1F6FF734FF00102FA
S32D000104481A7040F20043C1F6FF731A6843F22C73C1F6FF731A6040F20443C1F6FF731A6843F23073C1F6FF733F
S32D000104701A6040F20443C1F6FF731B681846FCF76BFD034643F27C60C1F6FF70194605F0A3FA40F20043C1F668
S32D00010498FF731B681846FCF75BFD034643F27860C1F6FF70194605F093FA80BD80B500AF40F23043C1F6FF734B
S32D000104C04FF002021A7040F20043C1F6FF731A6843F22C73C1F6FF731A6040F20443C1F6FF731A6843F23073AD
S32D000104E8C1F6FF731A6040F20443C1F6FF731B68C3F100031846FCF72BFD034643F27C60C1F6FF70194605F019
S32D0001051063FA40F20043C1F6FF731B68C3F100031846FCF719FD034643F27860C1F6FF70194605F051FA80BDC8
S32D0001053880B500AF40F23043C1F6FF734FF003021A7040F20043C1F6FF731A6843F22C73C1F6FF731A6040F24B
S32D000105600443C1F6FF731A6843F23073C1F6FF731A6040F20443C1F6FF731B68C3F100031846FCF7E9FC0346A4
S32D0001058843F27C60C1F6FF70194605F021FA40F20043C1F6FF731B681846FCF7D9FC034643F27860C1F6FF70DB
S32D000105B0194605F011FA80BD80B500AF40F23043C1F6FF734FF004021A7043F22C73C1F6FF734FF000021A6047
S32D000105D843F23073C1F6FF734FF000021A6043F27C60C1F6FF7005F0D5F943F27860C1F6FF7005F0CFF980BD11
S32D0001060080B582B000AF7860396040F23043C1F6FF734FF001021A7043F22C73C1F6FF737A681A6043F2307379
S32D00010628C1F6FF733A681A6043F23073C1F6FF731B681846FCF78CFC034643F27C60C1F6FF70194605F0C4F970
S32D0001065043F22C73C1F6FF731B681846FCF77CFC034643F27860C1F6FF70194605F0B4F907F10807BD4680BD6E
S32D0001067880B582B000AF7860396040F23043C1F6FF734FF002021A7043F22C73C1F6FF737A681A6043F2307300
S32D000106A0C1F6FF733A681A6043F23073C1F6FF731B68C3F100031846FCF74EFC034643F27C60C1F6FF70194631
S32D000106C805F086F943F22C73C1F6FF731B68C3F100031846FCF73CFC034643F27860C1F6FF70194605F074F992
S32D000106F007F10807BD4680BD90B585B000AF43F27860C1F6FF7005F049F943F27C60C1F6FF7005F043F940F267
S32D000107181043C1F6FF731A6840F21443C1F6FF731B6843F28460C1F6FF7011461A4606F0F3F940F20843C1F673
S32D00010740FF731B6843F2DC60C1F6FF70194606F015FD40F20C43C1F6FF731B6843F2DC60C1F6FF70194606F07E
S32D0001076827FD40F22743C1F6FF731B78002B13D043F2D460C1F6FF7009F020FC43F2D460C1F6FF700AF0D4F8DF
S32D0001079043F2D460C1F6FF700AF026F903467B6040F22443C1F6FF731B78002B41D0764B3B6013E043F2BC603D
S32D000107B8C1F6FF7005F0A8FE03463B606CA1D1E9000105F035FC43F61400C1F6FF70396807F0BEFD3868FBF727
S32D000107E07BFF02460B464FF001010C461046194663A3D3E90023FCF753FA0346002B02D14FF000031C46E3B2EA
S32D00010808002B0ED043F28060C1F6FF7006F062FB034683F00103DBB2002B02D04FF0010301E04FF00003002B4F
S32D00010830C0D140F22543C1F6FF731B78002B05D005F026FC02460B46C7E9022305F020FC43F22073C1F6FF732B
S32D00010858C3E9000143F22873C1F6FF734FF000021A6000F091F840F22743C1F6FF731B78002B16D043F2D460C5
S32D00010880C1F6FF700AF08AF843F61400C1F6FF704DF27C61C0F2010107F054FC43F61400C1F6FF70796807F0D2
S32D000108A843FD40F22543C1F6FF731B78002B1FD005F0EAFB02460B4610461946D7E90223FBF7A6FD02460B4636
S32D000108D0C7E9022343F61400C1F6FF704DF28C61C0F2010107F02EFC43F61400C1F6FF70D7E9022307F044FD20
S32D000108F843F61400C1F6FF704DF29C61C0F2010107F01CFC43F2E860C1F6FF7009F0B4F8034643F61400C1F6CA
S32D00010920FF70194607F018FD43F61400C1F6FF704DF2A861C0F2010107F0E6FC00BF43F28060C1F6FF7006F096
S32D00010948C9FA034683F00103DBB2002BF3D143F27860C1F6FF7005F01DF843F27C60C1F6FF7005F017F807F111
S32D000109701407BD4690BD00BF9A9999999999B93F333333333333D33F9A99193FAFF3008080B582B000AF43F263
S32D000109983873C1F6FF734FF000021A6085E043F23C73C1F6FF73196843F23873C1F6FF731B681A4613464FEA30
S32D000109C0C3039B1A4FEAC303CB18184600F086FA0346FB71FB79012B15D143F23C73C1F6FF73196843F2387334
S32D000109E8C1F6FF731B681A4613464FEAC3039B1A4FEAC303CB18184600F040FB49E0FB79022B15D143F23C73C8
S32D00010A10C1F6FF73196843F23873C1F6FF731B681A4613464FEAC3039B1A4FEAC303CB18184600F045FB30E094
S32D00010A38FB79032B15D143F23C73C1F6FF73196843F23873C1F6FF731B681A4613464FEAC3039B1A4FEAC30381
S32D00010A60CB18184600F04AFB17E0FB79042B14D143F23C73C1F6FF73196843F23873C1F6FF731B681A4613469F
S32D00010A884FEAC3039B1A4FEAC303CB18184600F04FFB43F23873C1F6FF731B6803F1010243F23873C1F6FF7385
S32D00010AB01A6043F23873C1F6FF731B688F2BCCBF00230123DBB2002B7FF46DAF07F10807BD4680BD80B582B090
S32D00010AD800AF786043F61400C1F6FF704DF2BC61C0F2010107F02AFB43F61400C1F6FF70796807F019FC4FF02A
S32D00010B0000004FF07E5101F5E00105F095FA07F10807BD4680BD00BF80B582B000AF786043F61400C1F6FF70F6
S32D00010B284DF2C461C0F2010107F008FB43F61400C1F6FF70796807F00BFC4FF000004FF07E5101F5E00105F021
S32D00010B5073FA07F10807BD4680BD00BF80B582B000AFC7E9000143F61400C1F6FF704DF2CC61C0F2010107F0B2
S32D00010B78E5FA43F61400C1F6FF70D7E9002307F0FBFB4FF000004FF07E5101F5E00105F04FFA07F10807BD46C0
S32D00010BA080BD00BF80B500AF43F61400C1F6FF704DF2D861C0F2010107F0C4FA4FF000004FF07E5101F5E001CE
S32D00010BC805F036FA80BD00BF80B483B000AF78607B684FF004021A747B68184607F10C07BD4680BC704700BF38
S32D00010BF080B483B000AF786039607B683A681A607B684FF001021A7407F10C07BD4680BC704700BF80B483B076
S32D00010C1800AF786039607B683A685A607B684FF002021A7407F10C07BD4680BC704700BF80B483B000AF7860EC
S32D00010C4039607B683A689A607B684FF003021A7407F10C07BD4680BC704700BF80B483B000AF786039607B688E
S32D00010C683A68DA607B684FF004021A7407F10C07BD4680BC704700BF80B483B000AF78607B681B7C184607F14D
S32D00010C900C07BD4680BC704780B582B000AF786039607B681B683868984707F10807BD4680BD00BF80B582B053
S32D00010CB800AF786039607B685B683868984707F10807BD4680BD00BF80B584B000AFF860C7E90023FB689B6819
S32D00010CE0D7E90001984707F11007BD4680BD00BF80B582B000AF78607B68DB68984707F10807BD4680BD00BF3E
S32D00010D08F0B583B000AF786039607B683A685A603C6823464FEA83031B194FEA830318460BF0ECF806463346C4
S32D00010D301D4604F1FF331C4606E02846FFF748FF05F1140504F1FF34B4F1FF3F0CBF00230123DBB2002BF0D172
S32D00010D587B681E607B68184607F10C07BD46F0BD80B584B000AFF860B9607A60FB681968BA6813464FEA83038E
S32D00010D809B184FEA8303CB1818467968FFF730FF07F11007BD4680BD80B584B000AFF860B9607A60FB681968F5
S32D00010DA8BA6813464FEA83039B184FEA8303CB1818467968FFF72AFF07F11007BD4680BD80B584B000AFF86070
S32D00010DD0B9607A60FB681968BA6813464FEA83039B184FEA8303CB1818467968FFF724FF07F11007BD4680BDE7
S32D00010DF880B584B000AFF860B9607A60FB681968BA6813464FEA83039B184FEA8303CB1818467968FFF71EFFA4
S32D00010E2007F11007BD4680BD80B483B000AF78607B684FF000021A607B684FF000025A607B680C4A9A607968D6
S32D00010E484FF000024FF00003C1E904237B684FF004021A767B684FF000025A767B68184607F10C07BD4680BCF0
S32D00010E70704700BF0000000080B483B000AF78607B681B68184607F10C07BD4680BC704780B483B000AF78603C
S32D00010E987B685B68184607F10C07BD4680BC704780B483B000AF78607B689B68184607F10C07BD4680BC7047F3
S32D00010EC080B483B000AF78607B68D3E904231046194607F10C07BD4680BC704780B483B000AF78607B681B7E2F
S32D00010EE8184607F10C07BD4680BC704780B483B000AF78607B685B7E184607F10C07BD4680BC704780B485B00A
S32D00010F1000AFF860B9607A60FB68BA681A60FB687A685A60FB684FF001021A76FB684FF001025A7607F11407FD
S32D00010F38BD4680BC704700BF80B485B000AFF860B9607A60FB68BA681A60FB687A689A60FB684FF002021A76FE
S32D00010F60FB684FF001025A7607F11407BD4680BC704700BF80B485B000AFF860B960C7E90023FB68BA681A60CA
S32D00010F88F968D7E90023C1E90423FB684FF003021A76FB684FF001025A7607F11407BD4680BC704780B483B009
S32D00010FB000AF786039607B683A681A607B684FF004021A767B684FF001025A7607F10C07BD4680BC704700BF86
S32D00010FD882B080B582B000AF786007F1100181E80C0007F11000FFF743FF02467B681A6007F11000FFF748FF22
S32D0001100002467B685A6007F11000FFF74DFF02467B689A6007F11000FFF752FF02460B467968C1E9042307F1DB
S32D000110281000FFF757FF03461A467B681A7607F11000FFF75BFF03461A467B685A7607F10807BD46BDE88040FE
S32D0001105002B0704780B483B000AF78600B46FB70FB78002B04D07B684FF001025A7603E07B684FF000025A7620
S32D0001107807F10C07BD4680BC704700BF80B582B000AF786043F24873C1F6FF7319687B681B681A4613464FEAA9
S32D000110A083039B184FEA8303CA187B685B6810461946FFF7F1FD07F10807BD4680BD00BF80B582B000AF786014
S32D000110C843F24873C1F6FF7319687B681B681A4613464FEA83039B184FEA8303CA187B689B6810461946FFF79C
S32D000110F0E1FD07F10807BD4680BD00BF80B582B000AF786043F24873C1F6FF7319687B681B681A4613464FEA0D
S32D0001111883039B184FEA8303C9187B68D3E904230846FFF7D1FD07F10807BD4680BD00BF80B582B000AF786003
S32D0001114043F24873C1F6FF7319687B681B681A4613464FEA83039B184FEA8303CB181846FFF7C6FD07F1080795
S32D00011168BD4680BDF0B583B000AF78607B684FF000025A607B684FF090029A604FF4FC500AF0BCFE0646334625
S32D000111901D464FF08F0406E02846FFF745FE05F1380504F1FF34B4F1FF3F0CBF00230123DBB2002BF0D17B68C2
S32D000111B81E607B68184607F10C07BD46F0BD00BF80B584B000AFF860B9607A60FB681968FB685B681A461346A9
S32D000111E04FEAC3039B1A4FEAC303CB181846B9687A68FFF78BFEFB685B6803F10102FB685A60FB685B6803F116
S32D00011208FF33184607F11007BD4680BD80B584B000AFF860B9607A60FB681968FB685B681A4613464FEAC303B3
S32D000112309B1A4FEAC303CB181846B9687A68FFF77FFEFB685B6803F10102FB685A60FB685B6803F1FF33184640
S32D0001125807F11007BD4680BD80B584B000AFF860B960C7E90023FB681968FB685B681A4613464FEAC3039B1A45
S32D000112804FEAC303CB181846B968D7E90023FFF771FEFB685B6803F10102FB685A60FB685B6803F1FF331846B2
S32D000112A807F11007BD4680BD80B582B000AF786039607B6819687B685B681A4613464FEAC3039B1A4FEAC303CB
S32D000112D0CB1818463968FFF769FE7B685B6803F101027B685A607B685B6803F1FF33184607F10807BD4680BD05
S32D000112F880B582B000AF78607B6803F110031846FFF78EFD7B684FF000021A707B684FF000025A607A684DF263
S32D00011320E063C0F2010393607B684FF0000283F848207B684FF00002DA647B68184607F10807BD4680BD00BF02
S32D0001134880B483B000AF786039607B683A68DA6407F10C07BD4680BC704700BF80B485B000AFF860B9607A6009
S32D00011370FB684FF000021A70FB68BA685A60FB687A689A6007F11407BD4680BC704700BF82B0F0B58FB00CAF09
S32D000113987860396007F1200181E80C0007F12000FFF798FD03461A467B681A707B683A685A607B6803F1100642
S32D000113C06C4607F128050FCD0FC40FCD0FC495E80F0084E80F0007F1200191E80C003046FFF7FAFD07F12000A9
S32D000113E8FFF746FD02467B68DA6407F10C07BD46BDE8F04002B0704782B0F0B59DB00CAF786007F1580181E877
S32D000114100C0007F1580000F06BF803461A467B681A7007F1580000F06FF802467B685A6007F1580000F074F8B0
S32D0001143802467B689A607B6803F1100607F10803184607F1580100F073F86C4607F110050FCD0FC40FCD0FC449
S32D0001146095E80F0084E80F0007F108030CCB3046FFF7B2FD07F1580000F078F803461A467B6883F8482007F14A
S32D00011488580000F025F802467B68DA6407F14407BD46BDE8F04002B0704700BF80B483B000AF78600B46FB707A
S32D000114B0FB78002B05D07B684FF0010283F8482004E07B684FF0000283F8482007F10C07BD4680BC704700BFE7
S32D000114D880B483B000AF78607B68DB6C184607F10C07BD4680BC704780B483B000AF78607B681B78184607F1B4
S32D000115000C07BD4680BC704780B483B000AF78607B685B68184607F10C07BD4680BC704780B483B000AF7860D2
S32D000115287B689B68184607F10C07BD4680BC7047B0B483B000AF786039607A683B68144603F110050FCD0FC401
S32D000115500FCD0FC40FCD0FC495E8030084E80300786807F10C07BD46B0BC704780B483B000AF78607B6893F8B2
S32D000115784830184607F10C07BD4680BC704700BF80B584B000AF78607B6803F110031846FFF7A0FC0346FB732D
S32D000115A07B681B78002B09D17B689B6843F61400C1F6FF70194606F0A7FEC0E0FB7B012B30D143F61400C1F607
S32D000115C8FF704DF2E461C0F2010106F0B7FD7B6803F110031846FFF74BFC034643F61400C1F6FF70194606F00D
S32D000115F0D7FD43F61400C1F6FF704DF2F061C0F2010106F09FFD7B6803F110031846FFF73FFC034643F61400A0
S32D00011618C1F6FF70194606F087FE8CE0FB7B022B30D143F61400C1F6FF704DF2E461C0F2010106F083FD7B688F
S32D0001164003F110031846FFF717FC034643F61400C1F6FF70194606F0A3FD43F61400C1F6FF704DF2F861C0F29F
S32D00011668010106F06BFD7B6803F110031846FFF717FC034643F61400C1F6FF70194606F067FE58E0FB7B032B50
S32D0001169030D143F61400C1F6FF704DF2E461C0F2010106F04FFD7B6803F110031846FFF7E3FB034643F614008B
S32D000116B8C1F6FF70194606F06FFD43F61400C1F6FF704DF20071C0F2010106F037FD7B6803F110031846FFF7DD
S32D000116E0EFFB02460B4643F61400C1F6FF7006F047FE24E0FB7B042B21D143F61400C1F6FF704DF2E461C0F266
S32D00011708010106F01BFD7B6803F110031846FFF7AFFB034643F61400C1F6FF70194606F03BFD43F61400C1F66D
S32D00011730FF704DF20871C0F2010106F003FD07F11007BD4680BD00BFF0B583B000AF78607B684FF000025A606E
S32D000117584FF48C600AF0D2FB064633461D464FF00D0406E02846FFF7C3FD05F1500504F1FF34B4F1FF3F0CBFC9
S32D0001178000230123DBB2002BF0D17B681E607B684FF000021A727B68184607F10C07BD46F0BD00BF2DE9F04167
S32D000117A898B012AF786039606B4698467B685968F960084602464FF000034FF001044FF00005121943EB05034B
S32D000117D04FF4207000FB03F44FF0000000FB02F020184FF42074A2FB0423C01803460B4603F1010213464FEA2B
S32D000117F883039B184FEA0313084602464FF000034FF001044FF00005121943EB05034FF4207000FB03F44FF075
S32D00011820000000FB02F020184FF42074A2FB0423C01803460B4603F1010213464FEA83039B184FEA031303F162
S32D00011848070303F107034FEAD3034FEAC303ADEB030D12AB03F107034FEAD3034FEAC303BB60BB681D460C46F7
S32D0001187006E02846FFF740FD05F1500504F1FF34B4F1FF3F0CBF00230123DBB2002BF0D14FF000037B6125E0BE
S32D000118987A6913464FEA83039B184FEA0313BA68D5187B6819687A6913464FEA83039B184FEA0313CC18694621
S32D000118C004F108024FF04803084611461A4609F031FA94E80C002846FFF792FD7B6903F101037B617B685A686F
S32D000118E87B699A42D4BF00230123DBB2002BCFD17B685A6813464FEA83039B184FEA0313BA68D2187B685B686E
S32D0001191003F10103104619463A68FFF723FD7B685B6803F101027B685A607B685B681C4623464FEA83031B19A5
S32D000119384FEA031318460AF0E1FA064633461D4604F1FF331C4606E02846FFF7D1FC05F1500504F1FF34B4F11E
S32D00011960FF3F0CBF00230123DBB2002BF0D17B681E604FF000033B6125E07B6819683A6913464FEA83039B1879
S32D000119884FEA0313CD18B9683A6913464FEA83039B184FEA0313CC18694604F108024FF04803084611461A46FD
S32D000119B009F0C0F994E80C002846FFF721FD3B6903F101033B617B685A683B699A42D4BF00230123DBB2002B5D
S32D000119D8CFD1C54607F11807BD46BDE8F08100BF2DE9F0419AB012AFF860B9607A606B469846FB68596879611C
S32D00011A00084602464FF000034FF001044FF00005121943EB05034FF4207000FB03F44FF0000000FB02F02018CD
S32D00011A284FF42074A2FB0423C01803460B4603F1010213464FEA83039B184FEA0313084602464FF000034FF05A
S32D00011A5001044FF00005121943EB05034FF4207000FB03F44FF0000000FB02F020184FF42074A2FB0423C01821
S32D00011A7803460B4603F1010213464FEA83039B184FEA031303F1070303F107034FEAD3034FEAC303ADEB030DE2
S32D00011AA012AB03F107034FEAD3034FEAC3033B613B691D460C4606E02846FFF71DFC05F1500504F1FF34B4F1DE
S32D00011AC8FF3F0CBF00230123DBB2002BF0D14FF00003FB6125E0FA6913464FEA83039B184FEA03133A69D51876
S32D00011AF0FB681968FA6913464FEA83039B184FEA0313CC18694604F108024FF04803084611461A4609F00EF945
S32D00011B1894E80C002846FFF76FFCFB6903F10103FB61FB685A68FB699A42D4BF00230123DBB2002BCFD1FB6895
S32D00011B405A6813464FEA83039B184FEA03133A69D218FB685B6803F1010310461946BA68FFF700FCFB685A6801
S32D00011B6813464FEA83039B184FEA03133A69D31818467968FFF7E4FBFB685B6803F10102FB685A60FB685B6832
S32D00011B901C4623464FEA83031B194FEA031318460AF0B0F9064633461D4604F1FF331C4606E02846FFF7A0FB82
S32D00011BB805F1500504F1FF34B4F1FF3F0CBF00230123DBB2002BF0D1FB681E604FF00003BB6125E0FB681968F5
S32D00011BE0BA6913464FEA83039B184FEA0313CD183969BA6913464FEA83039B184FEA0313CC18694604F1080243
S32D00011C084FF04803084611461A4609F08FF894E80C002846FFF7F0FBBB6903F10103BB61FB685A68BB699A426A
S32D00011C30D4BF00230123DBB2002BCFD1C54607F12007BD46BDE8F08182B0F0B599B012AF786007F1300181E8C5
S32D00011C580C006B461E467B685968F960084602464FF000034FF001044FF00005121943EB05034FF4207000FBB0
S32D00011C8003F44FF0000000FB02F020184FF42074A2FB0423C01803460B4603F1010213464FEA83039B184FEAD2
S32D00011CA80313084602464FF000034FF001044FF00005121943EB05034FF4207000FB03F44FF0000000FB02F045
S32D00011CD020184FF42074A2FB0423C01803460B4603F1010213464FEA83039B184FEA031303F1070303F1070393
S32D00011CF84FEAD3034FEAC303ADEB030D12AB03F107034FEAD3034FEAC303BB60BB681D460C4606E02846FFF701
S32D00011D20EBFA05F1500504F1FF34B4F1FF3F0CBF00230123DBB2002BF0D143F61400C1F6FF704FF0000106F025
S32D00011D484BF943F61400C1F6FF704FF0010106F0A1F94FF000037B6125E07A6913464FEA83039B184FEA0313C4
S32D00011D70BA68D5187B6819687A6913464FEA83039B184FEA0313CC18694604F108024FF04803084611461A46B3
S32D00011D9808F0CCFF94E80C002846FFF72DFB7B6903F101037B617B685A687B699A42D4BF00230123DBB2002B96
S32D00011DC0CFD17B685A6813464FEA83039B184FEA0313BA6802EB030C7B685B6803F1010E6C4607F138050FCD0B
S32D00011DE80FC40FCD0FC495E80F0084E80F0007F1300191E80C0060467146FFF7C5FA7B685B6803F101027B6803
S32D00011E105A604FF000033B6125E07B6819683A6913464FEA83039B184FEA0313CD18B9683A6913464FEA830324
S32D00011E389B184FEA0313CC18694604F108024FF04803084611461A4608F070FF94E80C002846FFF7D1FA3B6996
S32D00011E6003F101033B617B685A683B699A42D4BF00230123DBB2002BCFD1B54607F11C07BD46BDE8F04002B0C8
S32D00011E88704700BF80B483B000AF78600B46FB707B68FA781A7207F10C07BD4680BC704780B483B000AF78603B
S32D00011EB039607B683A685A6007F10C07BD4680BC704700BF000000002DE9B04F8EB002AF78606B461D4643F642
S32D00011ED81400C1F6FF704FF0000106F07DF843F61400C1F6FF704FF0010106F0D3F807F10C0318464FF00301D9
S32D00011F0004F054FF7B685B6803F1FF343C62234618464FF000014FF001024FF00003121843EB01034FEAD261AD
S32D00011F284FEA431B41EA0B0B4FEA421A21460A464FF000034FF001004FF00001121843EB01034FEAD2614FEAA3
S32D00011F50431941EA09094FEA4218234603F101034FEA830303F1070303F107034FEAD3034FEAC303ADEB030D64
S32D00011F7802AB03F107034FEAD3034FEAC303FB6143F61400C1F6FF704FF0010106F082F84FF00003FB625EE024
S32D00011FA07B681968FA6A13464FEA83039B184FEA0313CB181846FFF7E7FA7B681968FA6A13464FEA83039B1885
S32D00011FC84FEA0313CB181846FFF79AFA034603F1FF3213464FEA03139B1803F10601FB69FA6A43F822107B68F4
S32D00011FF01968FA6A13464FEA83039B184FEA0313CB181846FFF7B2FA0346002B23D043F61400C1F6FF704FF0C7
S32D00012018030106F03FF8FB69FA6A53F8223003F102034FF00502009243F61400C1F6FF704FF00C011A464FF0D4
S32D00012040050306F097FE43F61400C1F6FF704FF0010106F023F8FB6A03F10103FB627B685A68FB6A9A42D4BFE6
S32D0001206800230123DBB2002B96D14FF00003BB617B685B6803F1FF337B614FF00003BB624FF000033B6143F667
S32D000120901400C1F6FF704FF0020105F0FFFFFB69BA6A53F822307868194600F0ADF84FF0010387F8273079E047
S32D000120B8BB6A3B6107F10C03184604F0F9FE0346002B14D000BF07F10C03184604F0F0FE0346002BF7D1BA6A2A
S32D000120E0BB699A4202D17B69BB6236E0BB6A03F1FF33BB6231E007F10C03184604F002FF0346002B14D000BFFD
S32D0001210807F10C03184604F0F9FE0346002BF7D1BA6A7B699A4202D1BB69BB6219E0BB6A03F10103BB6214E0FD
S32D0001213007F10C03184604F0D1FE0346002B0CD000BF07F10C03184604F0C8FE0346002BF7D14FF0000387F82D
S32D000121582730BA6A3B699A421FD043F61400C1F6FF704FF0000105F095FFFB693A6953F822307868194600F05F
S32D0001218043F843F61400C1F6FF704FF0020105F085FFFB69BA6A53F822307868194600F033F817A1D1E90001D5
S32D000121A803F046FF97F82730002B81D143F61400C1F6FF704FF0010105F06CFF7B681B7A002B0ED07B68196874
S32D000121D0BA6A13464FEA83039B184FEA0313CB181846FFF779F90346BB62BB6AAD46184607F13007BD46BDE846
S32D000121F8B08F00BFAFF300809A9999999999B93F80B584B002AF786039603B68A3F105034FF01102009243F622
S32D000122201400C1F6FF704FF001011A464FF49B7306F0DAFC07F10807BD4680BD80B500AF43F25070C1F6FF7051
S32D000122484DF21071C0F20101FFF7A8FA43F25070C1F6FF704DF22471C0F20101FFF79EFA43F25070C1F6FF700F
S32D000122704DF22C71C0F20101FFF794FA43F25070C1F6FF704DF24071C0F20101FFF78AFA43F25070C1F6FF70D7
S32D000122984DF25471C0F20101FFF780FA43F25070C1F6FF704DF26871C0F20101FFF776FA43F25070C1F6FF7087
S32D000122C04DF27C71C0F20101FFF76CFA43F25070C1F6FF704DF29071C0F20101FFF762FA43F25070C1F6FF7037
S32D000122E84DF2A071C0F20101FFF758FA43F25070C1F6FF704DF2B071C0F20101FFF74EFA80BD00BF80B500AF2E
S32D0001231043F25C70C1F6FF704DF2C871C0F20101FFF740FA43F25C70C1F6FF704DF2D471C0F20101FFF736FA96
S32D0001233843F25C70C1F6FF704DF2E071C0F20101FFF72CFA43F25C70C1F6FF704DF2EC71C0F20101FFF722FA66
S32D0001236043F25C70C1F6FF704DF2F871C0F20101FFF718FA43F25C70C1F6FF704DF60401C0F20101FFF70EFAA2
S32D0001238843F25C70C1F6FF704DF61001C0F20101FFF704FA43F25C70C1F6FF704DF61C01C0F20101FFF7FAF9DF
S32D000123B043F25C70C1F6FF704DF62801C0F20101FFF7F0F943F25C70C1F6FF704DF63401C0F20101FFF7E6F9B0
S32D000123D843F25C70C1F6FF704DF64001C0F20101FFF7DCF943F25C70C1F6FF704DF64C01C0F20101FFF7D2F980
S32D0001240080BD00BF80B500AF43F27470C1F6FF704DF65801C0F20101FFF7C4F943F27470C1F6FF704DF66C019C
S32D00012428C0F20101FFF7BAF943F27470C1F6FF704DF67801C0F20101FFF7B0F943F27470C1F6FF704DF68401D3
S32D00012450C0F20101FFF7A6F943F27470C1F6FF704DF69801C0F20101FFF79CF943F27470C1F6FF704DF6AC018B
S32D00012478C0F20101FFF792F943F27470C1F6FF704DF6B801C0F20101FFF788F980BD00BFF0B5ADF5377D0CAFE8
S32D000124A043F2C870C1F6FF704FF00001FFF7FCFC3B461D464FF00B0406E02846FEF7B4FC05F1380504F1FF34C6
S32D000124C8B4F1FF3F0CBF00230123DBB2002BF0D14FF00003C7F8A0324FF00003C7F8A4325CE040F23843C1F62D
S32D000124F0FF731A6813464FEA43039B184FEA83031A46D7F8A432D318C7F8A0323946D7F8A42213464FEAC30392
S32D000125189B1A4FEAC30301EB030E43F23C73C1F6FF731968D7F8A02213464FEAC3039B1A4FEAC303CE186C4620
S32D0001254006F108050FCD0FC40FCD0FC495E80F0084E80F0096E80C007046FEF73DFD3946D7F8A42213464FEAEE
S32D00012568C3039B1A4FEAC303CE186C4606F108050FCD0FC40FCD0FC495E80F0084E80F0096E80C0043F2C870D2
S32D00012590C1F6FF70FFF758FBD7F8A43203F10103C7F8A432D7F8A4320B2BCCBF00230123DBB2002B99D107F5B0
S32D000125B82B77BD46F0BD00BF80B500AF43F28070C1F6FF704FF00101FFF75CFC43F28C70C1F6FF704FF001018D
S32D000125E0FFF754FC43F29870C1F6FF704FF00101FFF74CFC43F2A470C1F6FF704FF00101FFF744FC43F2B07069
S32D00012608C1F6FF704FF00101FFF73CFC43F2BC70C1F6FF704FF00101FFF734FC80BD00BF80B586B000AFC7E95A
S32D0001263002017A603B6043F61400C1F6FF704DF6C801C0F2010105F07DFD43F61400C1F6FF70D7E9022305F014
S32D0001265893FE43F61400C1F6FF704DF6DC01C0F2010105F04DFE43F61400C1F6FF704DF6F001C0F2010105F0EB
S32D0001268043FE43F61400C1F6FF704DF60411C0F2010105F039FE4FF000037B6112E07B694FEAC3037A68D3187F
S32D000126A8D3E90023D7E9020100F02EF802460B46C7E902237B6903F101037B617A693B689A42ACBF0023012311
S32D000126D0DBB2002BE3D143F61400C1F6FF704DF61411C0F2010105F02DFD43F61400C1F6FF70D7E9022305F074
S32D000126F843FED7E902231046194607F11807BD4680BD00BF0000000080B584B000AFC7E90201C7E9002343F6EB
S32D000127201400C1F6FF704DF62C11C0F2010105F009FD43F61400C1F6FF70D7E9002305F01FFE61E043F2806063
S32D00012748C1F6FF7004F0B4FB0346002B25D0D7E90201D7E90023F9F75BFE02460B46C7E9022343F61400C1F6CF
S32D00012770FF704DF64011C0F2010105F0E3FC43F61400C1F6FF70D7E9022305F0F9FD43F28060C1F6FF7004F03D
S32D000127988FFB0346002BF6D12DE043F28060C1F6FF7004F0ABFB0346002B24D0D7E90201D7E90023F9F72EFE41
S32D000127C002460B46C7E9022343F61400C1F6FF704DF64011C0F2010105F0B4FC43F61400C1F6FF70D7E90223C4
S32D000127E805F0CAFD43F28060C1F6FF7004F086FB0346002BF6D112A1D1E9000103F018FC43F28060C1F6FF706B
S32D0001281004F064FB034683F00103DBB2002B91D143F28060C1F6FF7004F058FB0346002BF6D1D7E90223104674
S32D00012838194607F11007BD4680BD00BFAFF300809A9999999999B93FB0B586B000AFF860B9607A6043F6140071
S32D00012860C1F6FF704DF6C801C0F2010105F06AFC43F61400C1F6FF70F96805F06DFD43F61400C1F6FF704DF61F
S32D00012888DC01C0F2010105F03BFD43F61400C1F6FF704DF6F001C0F2010105F031FD43F61400C1F6FF704DF62F
S32D000128B00411C0F2010105F027FD4FF000037B611FE0F868F9F708FF04460D467B694FEA8303BA68D3181B68D3
S32D000128D81846F9F7FDFE02460B4620462946FFF713FF02460B4610461946FAF727FA0346FB607B6903F1010332
S32D000129007B617A697B689A42ACBF00230123DBB2002BD6D143F61400C1F6FF704DF61411C0F2010105F00EFC8B
S32D0001292843F61400C1F6FF70F96805F011FDFB68184607F11807BD46B0BD00BFB0B586B000AFF860B9607A600D
S32D0001295043F61400C1F6FF704DF6C801C0F2010105F0F0FB43F61400C1F6FF70F96805F0DFFC43F61400C1F69D
S32D00012978FF704DF6DC01C0F2010105F0C1FC43F61400C1F6FF704DF6F001C0F2010105F0B7FC43F61400C1F634
S32D000129A0FF704DF60411C0F2010105F0ADFC4FF000037B611FE0F868F9F77CFE04460D467B694FEA8303BA68A6
S32D000129C8D3181B681846F9F771FE02460B4620462946FFF799FE02460B4610461946FAF765F90346FB607B6995
S32D000129F003F101037B617A697B689A42ACBF00230123DBB2002BD6D143F61400C1F6FF704DF61411C0F20101A2
S32D00012A1805F094FB43F61400C1F6FF70F96805F083FCFB68184607F11807BD46B0BD00BF90B583B000AF7860BD
S32D00012A404FF001031C4678680A49FAF777FC0346002B02D14FF000031C46E3B2002B03D07B6883F000437B6039
S32D00012A687B68184607F10C07BD4690BD00000000B0B584B000AF786043F27C60C1F6FF70254902F0A5FF43F213
S32D00012A907860C1F6FF70234902F09EFF03F0F8FA02460B4610461946FAF74CF90346BB601D4BFB6014E003F0A7
S32D00012AB8EBFA04460D46B868F9F70AFE02460B4620462946F9F7A4FC02460B4610461946FAF734F90346FB6047
S32D00012AE04FF001031C46F8687968FAF727FC0346002B02D14FF000031C46E3B2002BDAD143F27C60C1F6FF7040
S32D00012B0802F048FF43F27860C1F6FF7002F042FF07F11007BD46B0BD0000A0420000A0C200000000B0B584B0A3
S32D00012B3000AF786043F27C60C1F6FF70254902F04BFF43F27860C1F6FF70224902F044FF03F09EFA02460B4617
